:1000000005C1000034C1000032C1000030C1000051
:100010002EC100002CC100002AC1000028C1000030
:1000200026C1000024C1000022C1000020C1000040
:100030001EC100001CC100001AC1000018C1000050
:1000400016C1000014C1000012C1000010C1000060
:100050000EC100000CC100000AC100000C94702DFC
:1000600006C100000C948F310C94C53100C1000012
:10007000FEC00000FCC00000FAC00000F8C0000094
:10008000F6C00000F4C00000F2C00000F0C00000A4
:100090000C941B320C945132EAC00000E8C00000FE
:1000A000E6C00000E4C00000E2C00000E0C00000C4
:1000B000DEC00000DCC00000DAC00000D8C00000D4
:1000C000D6C00000D4C000000C94DE290C94A732E6
:1000D0000C94DD32CCC000000C9433330C946933A3
:1000E000C6C0000000000A0B02090C0D0E08070331
:1000F00004010000000000000000000000000000FB
:1001000000000000000000000000000000000000EF
:1001100012111000000000000000000000000000AC
:100120000000000000000000000001021020200874
:100130000810204010204080020102010804020142
:1001400001020408102040808040201008040201B1
:10015000800402018040201008040201080402010A
:100160000102040810204080010204081020408091
:1001700005050505070508080808020202020A0A23
:100180000808040404040101010101010101030341
:10019000030303030303040707070C0C0C0C0C0CEC
:1001A0000C0C0202020206060606060606060B0BE9
:1001B0000B0B0B0B0B0B000020002300260029006B
:1001C0002C002F003200000100000301060109018C
:1001D00000002200250028002B002E0031003400F2
:1001E00002010000050108010B01000021002400AC
:1001F00027002A002D003000330001010000040117
:1002000007010A01EE317A320633923311241FBE00
:10021000CFEFD1E2DEBFCDBF00E00CBF16E0A0E023
:10022000B2E0ECEAF8E600E00BBF02C007900D92E6
:10023000A432B107D9F723E1A4E2B6E001C01D92D0
:10024000AE3EB207E1F711E0C6E0D1E000E006C043
:1002500021970109802FFE010E942334C230D1076B
:1002600080E00807A9F70E94352B0C945434C8CEBF
:10027000CF93DF93882349F0EB0181500E94772EC2
:1002800099838883DF91CF910895FB0111821082B9
:10029000F9CF0F931F938B019C0183E0369527952F
:1002A000179507958A95D1F7035D194F462F47702B
:1002B00021E030E0F90102C0EE0FFF1F4A95E2F79E
:1002C000AF01F80120812423CB010196211102C046
:1002D00090E080E01F910F9108950F931F938B0181
:1002E0009C0183E036952795179507958A95D1F758
:1002F000677081E090E001C0880F6A95EAF7F80125
:10030000E35DF94F2081452B31F480958223808372
:100310001F910F910895822BFACFCF92DF92EF9227
:10032000FF92CF93DF936B017C0160E086E3C816F8
:10033000D104E104F10490F486E38C0D0E94D42FE3
:10034000E6012196AE01C701B601C7DFCE01DF91FC
:10035000CF91FF90EF90DF90CF9008958C2DEECF4E
:10036000882341F08150682F70E090E080E050E0F9
:1003700040E0B3CF0895611102C00C94D42F6130D6
:10038000E1F362E0FACF662319F061E00C941030DB
:1003900060E0FCCF0E943D3021E0019709F020E0B1
:1003A000822F0895CF92DF92EF92FF92CF9388230E
:1003B00051F16A017B01CFEFC80F20E030E0A901C5
:1003C000CB01B6010E94222C87FF11C0C701B601E4
:1003D00090580E942B2C9B01AC016C2F70E090E098
:1003E00080E0CF91FF90EF90DF90CF90B2C0C70137
:1003F000B6010E94262C8C2FCF91FF90EF90DF90BA
:10040000CF900C949A2ECF91FF90EF90DF90CF90E9
:1004100008950F931F938B019C0183E036952795D8
:10042000179507958A95D1F70C5D194F462F4770A0
:1004300021E030E0F90102C0EE0FFF1F4A95E2F71C
:10044000AF01F80120812423CB010196211102C0C4
:1004500090E080E01F910F9108950F931F938B01FF
:100460009C0183E036952795179507958A95D1F7D6
:10047000677081E090E001C0880F6A95EAF7F801A3
:10048000EC5DF94F2081452B31F4809582238083E8
:100490001F910F910895822BFACF2F923F924F9286
:1004A0005F926F927F928F929F92AF92BF92CF9204
:1004B000DF92EF92FF920F931F93CF93DF93D62E8D
:1004C000C72E782E692E49015A01280161E08D2D31
:1004D0000E94D42FCD2DDC2D8E010F5F1F4FA80160
:1004E0006D2D7C2D872D962DB8DF20E030E0A90101
:1004F000C201B7010E94092D181664F4C201B701A8
:100500000E942B2C2B01C501B4010E942B2CA201AF
:10051000CE0123D0C801DF91CF911F910F91FF90A1
:10052000EF90DF90CF90BF90AF909F908F907F9093
:100530006F905F904F903F902F900895882341F0E7
:100540008150682F70E090E080E050E040E085CF7F
:100550000895862FB9010C949A2E9C01FC01EC5150
:10056000FF4FE491E150E231E0F4F0E08827E454F9
:10057000FD4F8F4F0C942334CE02D502D802EF02E8
:100580000403D102190325032903400355036A0319
:1005900081039603D102AB03C203D70384B58068FD
:1005A00084BD60E0822F0C94103084B58062F8CF57
:1005B000809180008C7F8260809380008091810098
:1005C000807E8061682B6093810050938700409308
:1005D000860080918000806880938000E2CF8091C7
:1005E00080008C7F82608093800080918100807E7B
:1005F0008061682B60938100509387004093860050
:10060000809180008062E8CF809180008C7F826042
:100610008093800080918100807E8061682B609350
:10062000810050938700409386008091800088600D
:10063000D3CF8091B00080688093B0008091B100EA
:10064000887F682B6093B100ACCF8091B00080624E
:10065000F3CF809190008C7F826080939000809196
:100660009100807E8061682B609391005093970089
:10067000409396008091900080688093900091CF85
:10068000809190008C7F8260809390008091910097
:10069000807E8061682B6093910050939700409317
:1006A0009600809190008062E8CF809190008C7FCE
:1006B00082608093900080919100807E8061682BA1
:1006C0006093910050939700409396008091900022
:1006D0008860D3CF8091A0008C7F82608093A0003F
:1006E0008091A100807E8061682B6093A10050936F
:1006F000A7004093A6008091A00080688093A0008E
:1007000050CF8091A0008C7F82608093A000809168
:10071000A100807E8061682B6093A1005093A700A8
:100720004093A6008091A0008062E8CF8091A00055
:100730008C7F82608093A0008091A100807E806188
:10074000682B6093A1005093A7004093A60080916E
:10075000A0008860D3CF809120018C7F826080933D
:10076000200180912101807E8061682B60932101AE
:100770005093270140932601809120018068809347
:1007800020010FCF809120018C7F82608093200117
:1007900080912101807E8061682B609321015093BC
:1007A000270140932601809120018062E8CF80914B
:1007B00020018C7F82608093200180912101807EC6
:1007C0008061682B6093210150932701409326019B
:1007D000809120018860D3CF90E080E008950F934E
:1007E0001F93009709F48DC06115710509F489C044
:1007F000009142021091430220914402309145023F
:100800000E3F1F4F2F4F3F4F09F06CC04FEF5FEF70
:10081000BA014093420250934302609344027093A2
:10082000450240914202509143026091440270910E
:100830004502DC011296ED91FC9180819181A281AB
:10084000B3818093BD069093BE06A093BF06B0937C
:10085000C00684819581A681B7818093B906909363
:10086000BA06A093BB06B093BC0680859185A2858D
:10087000B3858093B5069093B606A093B706B09360
:10088000B80684859585A685B7858093B106909333
:10089000B206A093B306B093B4061092AD061092C0
:1008A000AE061092AF061092B0060E94E40D89E0E9
:1008B0009EE0909337068093360690933906809396
:1008C000380690933B0680933A060E94D30C00971B
:1008D00031F421E030E03093C2062093C1061F912D
:1008E0000F91089500914202109143022091440219
:1008F00030914502DB010D931D932D933C9313978B
:1009000090CF8FEF9FEFEBCF8F929F92AF92BF92DE
:10091000CF92DF92EF92FF921F93CF93DF934B0121
:100920005C011091C40682E090E09093C20680932F
:10093000C10681149104A104B10441F48091C4065C
:10094000811104C08091C306C1E08111C0E0C12CB7
:10095000D12C76018091C406811106C08091C30616
:10096000811102C0CC23D9F083E090E09093C206BD
:100970008093C106CC2381F1CCE9DFEF111102C0D5
:100980000E946D11CE01DF91CF911F91FF90EF90EA
:10099000DF90CF90BF90AF909F908F9008956AE0C6
:1009A00070E080E090E00E94DF2D80E1C80E87E2D9
:1009B000D81EE11CF11C8FEF88169806A806B80611
:1009C00031F0C1E08C149D04AE04BF0408F0C0E017
:1009D00080E00E94070DBECFD0E0C0E0CFCFCF9225
:1009E000DF92EF92FF920F931F93CF93DF938F3F8E
:1009F000910511F008F050C02091C1063091C20657
:100A00002330310539F02091C1063091C2062130E2
:100A1000310531F424E030E03093C2062093C10662
:100A20006A017B01EC0183309105A0F011E0AE0179
:100A3000C701B601B7D7AB01BC01CE011123F9F054
:100A4000DF91CF911F910F91FF90EF90DF90CF90AA
:100A50000C9496138C01000F111F0A5C194FD801DA
:100A60008D919C91892B11F30E94A0130297F1F6AE
:100A7000D801ED91FC91CE011995182FD8CF0E9485
:100A8000B81390E080E0DF91CF911F910F91FF901C
:100A9000EF90DF90CF9008958FEF9FEFF4CF80E03D
:100AA000B6C7CF93DF9386E090E09093C206809321
:100AB000C1060E94600DEC01E6E3F6E086E0DF018E
:100AC0001D928A95E9F70E9405111092C2061092B4
:100AD000C106CE01DF91CF9108958091C30608959C
:100AE0008091AC0608956093420270934302809314
:100AF00044029093450290E080E00895FC0191E06B
:100B000080918906811190E0918308952F923F9200
:100B10004F925F926F927F928F929F92AF92BF920D
:100B2000CF92DF92EF92FF920F931F93CF93DF93B9
:100B300000D000D01F921F92CDB7DEB780918906FA
:100B400091E0811190E090938A068F5F8A3008F0DF
:100B50008CC280938906C0902402D0902502E09038
:100B60002602F0902702A7019601609197137091D9
:100B700098138091991390919A130E94222C8823A4
:100B800041F0C0929713D0929813E0929913F0928B
:100B90009A1365E470E080E090E07BDB909396131D
:100BA0008093951323E030E03093E20C2093E10C26
:100BB00043E050E063E07DE05BDB10918A061123A7
:100BC00081F08091D3139091D413A091D513B0915B
:100BD000D6138093E30C9093E40CA093E50CB093B0
:100BE000E60C6091030D7091040D90E080E00E948E
:100BF000572C9B01AC016091E30C7091E40C809147
:100C0000E50C9091E60C0E94BD2B6B017C01E894F1
:100C1000F7F8C092E70CD092E80CE092E90CF09261
:100C2000EA0C2091000230910102409102025091A1
:100C30000302C701B6010E940D2D2091CF13309100
:100C4000D0134091D1135091D2130E94BD2B20910B
:100C500018023091190240911A0250911B020E9411
:100C60000D2D2B013C0120911C0230911D02409161
:100C70001E0250911F02C701B6010E940D2D209146
:100C8000CB133091CC134091CD135091CE130E94D1
:100C9000BE2BA30192010E94BE2B6B017C018090B0
:100CA000200290902102A0902202B0902302AC0179
:100CB0009B01C501B4010E94222C87FFD9C18092FB
:100CC000EB0C9092EC0CA092ED0CB092EE0C112378
:100CD00021F08091E5138093050D8091050D10E0C2
:100CE00061E0811102C011E060E08AE04CDB612F1D
:100CF00089E049DB80918A06882321F08091E61300
:100D00008093060D8091060D882309F4CBC1809154
:100D1000EB0C9091EC0CA091ED0CB091EE0CBF7728
:100D20008093F30C9093F40CA093F50CB093F60C15
:100D300068E070E080E090E06CDB8C019093CA1377
:100D40008093C9138090F30C9090F40CA090F50C54
:100D5000B090F60C20E030E04FE753E4C501B40159
:100D60000E94222C18160CF4A6C120E030E0A90144
:100D7000C501B4010E94092D87FDA4C1B501A401DC
:100D8000C80110DB8090280290902902A0902A02CE
:100D9000B0902B02A501940160918B1370918C137C
:100DA00080918D1390918E130E94222C882341F004
:100DB00080928B1390928C13A0928D13B0928E130D
:100DC0006EE370E080E090E064DA90938A138093A1
:100DD000891323E030E03093E20C2093E10C43E0F0
:100DE00050E0BE016F5F7F4F43DA69817A8190E006
:100DF00080E00E94572C6093EF0C7093F00C80936E
:100E0000F10C9093F20C2090310D3090320DF101E5
:100E100081809280A380B4809101285D3C4F3C8307
:100E20002B838101085F1F4F8A9489288A288B2889
:100E3000D1F0812C912C5401839481829282A382DF
:100E4000B48221E02583EB81FC8180809180A280A7
:100E5000B380F80181929192A192B1922B813C8151
:100E60002E173F07B9F76093FB0C7093FC0C80932F
:100E7000FD0C9093FE0C812C912C5401F801F08113
:100E8000FD83F801F181FE83F801F281FF83F8010F
:100E9000F381F887F80161937193819391938F01A6
:100EA000E05EFC4F20813181428153810E940D2DF3
:100EB0009B01AC01C501B4010E94BE2B4B015C013A
:100EC0008D819E81AF81B885BC01CD012B813C8194
:100ED0002017310799F6F101E45BF94F2081318148
:100EE000428153810E940D2D6093FF0C7093000D81
:100EF0008093010D9093020DA50194010E94BE2BD9
:100F00006093FB0C7093FC0C8093FD0C9093FE0C93
:100F1000A70196016091EB0C7091EC0C8091ED0CA7
:100F20009091EE0C0E94BD2B209110023091110285
:100F300040911202509113020E940D2D6B017C0111
:100F40002091E70C3091E80C4091E90C5091EA0CAB
:100F5000609104027091050280910602909107024F
:100F60000E940D2D9B01AC01C701B6010E94BE2B52
:100F7000209138023091390240913A0250913B025F
:100F80000E940D2D2091CB133091CC134091CD13A5
:100F90005091CE130E94BE2B6093CB137093CC1351
:100FA0008093CD139093CE1320913C0230913D025B
:100FB00040913E0250913F02C301B2010E940D2DAB
:100FC0002091CF133091D0134091D1135091D2136F
:100FD0000E94BE2B6093CF137093D0138093D113D4
:100FE0009093D21360917C0670917D0680917E066D
:100FF00090917F066F5F7F4F8F4F9F4F60937C066E
:1010000070937D0680937E0690937F060E94572CF6
:101010009B01AC01609180067091810680918206EF
:10102000909183060E940D2D609378067093790647
:1010300080937A0690937B0628960FB6F894DEBFCD
:101040000FBECDBFDF91CF911F910F91FF90EF9019
:10105000DF90CF90BF90AF909F908F907F906F90D8
:101060005F904F903F902F9008951092890673CD16
:101070008090140290901502A0901602B090170272
:10108000A7019601C501B4010E94092D18160CF4A0
:1010900016CEC092EB0CD092EC0CE092ED0CF092DC
:1010A000EE0C15CE1092F30C1092F40C1092F50C7D
:1010B0001092F60C3DCE812C912C3FE7A32E33E409
:1010C000B32E5CCE812C912C540158CECF92DF925E
:1010D000EF92FF92C0902C02D0902D02E0902E0251
:1010E000F0902F02A70196016091AF137091B01399
:1010F0008091B1139091B2130E94222C882341F069
:10110000C092AF13D092B013E092B113F092B21329
:101110008AE140D940E050EC6FE774E4882321F085
:1011200040E050E060E470EC4093F70C5093F80C12
:101130006093F90C7093FA0C4091F70C5091F80CF5
:101140006091F90C7091FA0C4093D3135093D4131F
:101150006093D5137093D6138093E513C09030023B
:10116000D0903102E0903202F0903302A701960154
:101170006091A3137091A4138091A5139091A6136D
:101180000E94222C882341F0C092A313D092A41372
:10119000E092A513F092A6138BE1FCD88093E6139E
:1011A0008091840690918506A0918606B09187066D
:1011B0000196A11DB11D8093840690938506A0938E
:1011C0008606B0938706FF90EF90DF90CF9008954A
:1011D0008F929F92AF92BF92EF92FF920F931F93C5
:1011E000CF9380E090E0A0E8BFEB80938B069093D4
:1011F0008C06A0938D06B0938E068AE097EDA3E24D
:10120000BCE38093800690938106A0938206B093FE
:10121000830685EB93EFA0EABFED8093660690937B
:101220006706A0936806B093690686E39BEFA1E981
:10123000B1EF80936A0690936B06A0936C06B0930F
:101240006D0680EA99E4ADEFBEEE80936E06909352
:101250006F06A0937006B09371068EE897E3A0E83E
:10126000BBE48093720690937306A0937406B093C8
:10127000750686E596E090936506809364068CE398
:1012800096E0909357068093560680E995E09093F8
:101290003D0680933C0690933F0680933E069093D4
:1012A00041068093400690934306809342069093B4
:1012B0004506809344069093470680934606909394
:1012C00049068093480690934B0680934A06909374
:1012D0004D0680934C0690934F0680934E06909354
:1012E0005106809350069093530680935206909334
:1012F00055068093540686E796E090935B068093AC
:101300005A0686E696E0909359068093580688E739
:1013100096E090935D0680935C0640913402509174
:10132000350260913602709137024093E30C50937E
:10133000E40C6093E50C7093E60C9091400290935E
:10134000050D809141028093060D4093D313509375
:10135000D4136093D5137093D61340910C0250911F
:101360000D0260910E0270910F024093CB135093C7
:10137000CC136093CD137093CE134091080250911B
:10138000090260910A0270910B024093CF135093AF
:10139000D0136093D1137093D2139093E51380937D
:1013A000E61310928F138091240290912502A09150
:1013B0002602B09127028093971390939813A093DD
:1013C0009913B0939A13812C912C54018394809299
:1013D000901390929113A0929213B092931365E49C
:1013E00070E080E090E00E948D01909396138093CE
:1013F0009513C1E0C09394131092BB138092BC1359
:101400009092BD13A092BE13B092BF1361E08AE028
:101410000E94BB01C093C0131092B3138092B41307
:101420009092B513A092B613B092B71361E089E021
:101430000E94BB01C093B8131092C3138092C413CF
:101440009092C513A092C613B092C713E12CF12C51
:101450008701A801970168E070E080E090E01DD866
:101460009093CA138093C913C093C8131092831327
:101470008091280290912902A0912A02B0912B021A
:1014800080938B1390938C13A0938D13B0938E1332
:101490008092841390928513A0928613B092871342
:1014A0006EE370E080E090E00E948D0190938A13DB
:1014B00080938913C09388131092070D8092080DB2
:1014C0009092090DA0920A0DB0920B0D80922D0DF5
:1014D00090922E0DA0922F0DB092300D1092340DDF
:1014E0001092350D1092360D1092370DE0925B1070
:1014F000F0925C1000935D1010935E10ECE6F2E049
:10150000AFE5B0E141915191619171914D935D933E
:101510006D937D9385E0E039F807A1F71092330DC4
:1015200083E39DE09093320D8093310DC1E0C09331
:101530000C0D1092A71380912C0290912D02A09176
:101540002E02B0912F028093AF139093B013A0930B
:10155000B113B093B213812C912C540183948092D7
:10156000A8139092A913A092AA13B092AB1360E0B3
:101570008AE10E94BB01C093AC1310929B1380912F
:10158000300290913102A0913202B09133028093E7
:10159000A3139093A413A093A513B093A6138092C2
:1015A0009C1390929D13A0929E13B0929F1360E0A3
:1015B0008BE10E94BB01C093A013CF911F910F91AB
:1015C000FF90EF90BF90AF909F908F900895809183
:1015D0008F1381111FC081E080938F13809190132E
:1015E00090919113A0919213B09193130197A1053B
:1015F000B10581F480919413882361F065E470E073
:1016000080E090E00E944901909396138093951397
:101610000E94B0018091BB13811103C081E08093CF
:10162000BB138091B313811103C081E08093B31386
:101630008091C31381112EC081E08093C3138091E8
:10164000C4139091C513A091C613B091C71301970D
:10165000A105B105F9F48091C8138823D9F068E099
:1016600070E080E090E00E9409029093CA1380939A
:10167000C91340E050E0BA010E94D20168E070E076
:1016800080E090E00E9409029093CA138093C913EE
:101690000E949E028091831381111FC081E080937C
:1016A00083138091841390918513A0918613B09138
:1016B00087130197A105B10581F4809188138823D0
:1016C00061F06EE370E080E090E00E944901909349
:1016D0008A13809389130E94B0018091070D8111B4
:1016E00032C081E08093070D8091080D9091090D23
:1016F000A0910A0DB0910B0D0197A105B10519F547
:1017000080910C0D8823F9F0E091310DF091320DAC
:1017100081819281A381B4810197A105B10541F432
:1017200082E090E0A0E0B0E081839283A383B48361
:101730008FEF9FEFDC0180932D0D90932E0DA093E2
:101740002F0DB093300D8091330D81111BC081E0BE
:101750008093330D8091340D9091350DA091360D0D
:10176000B091370D0197A105B10561F482E090E0D9
:10177000A0E0B0E08093340D9093350DA093360D2A
:10178000B093370D8091A713811103C081E080933E
:10179000A71380919B13811103C081E080939B1359
:1017A00008954F925F926F927F928F929F92AF9225
:1017B000BF92CF92DF92EF92FF920F931F93F89414
:1017C00040909C0650909D0660909E0670909F06EB
:1017D000C0909006D0909106E0909206F09093060B
:1017E000452B09F0A4C09B01AC0124193509460919
:1017F000570929013A010091980610919906209104
:101800009A0630919B0648015901840C951CA61C30
:10181000B71C80169106A206B306A0F400919406A8
:101820001091950620919606309197060F5F1F4FF5
:101830002F4F3F4F009394061093950620939606E2
:10184000309397068092980690929906A0929A06F5
:10185000B0929B06009194061091950620919606F1
:10186000309197068092A0069092A106A092A206BF
:10187000B092A3060093A4061093A5062093A60693
:101880003093A70660939C0670939D0680939E06F6
:1018900090939F06A0E1B7E2A30192010E942B342E
:1018A0006C0D7D1D8E1D9F1D60939006709391069B
:1018B0008093920690939306009142021091430206
:1018C00020914402309145020F3F1F4F2F4F3F4F51
:1018D000F1F00091420210914302209144023091B4
:1018E00045020E3F1F4F2F4F3F4F89F0C0904202DD
:1018F000D0904302E0904402F090450221E08C1425
:101900009D04AE04BF0408F420E02093AC06789454
:101910001F910F91FF90EF90DF90CF90BF90AF900D
:101920009F908F907F906F905F904F9008954B01A4
:101930005C0184189508A608B708A3019201261B2C
:10194000370B480B590B6415750586059705D0F0C4
:1019500082169306A406B50640F420E030E0A90103
:1019600081149104A104B10491F4A0E1B7E20E94B2
:101970002B34A7019601261B370B480B590BCA01C4
:10198000B901C5CF82169306A406B50670F7A0E18B
:10199000B7E2A50194010E942B346C0D7D1D8E1DB4
:1019A0009F1DB5CFFECECF93DF9300D01F92CDB752
:1019B000DEB71C821B821A8219821092A80610922E
:1019C000A9061092AA061092AB06BE016F5F7F4F68
:1019D000CE0103960E94AF2969817A818B819C8117
:1019E0000E94CF22009761F4BE016F5F7F4FCE014E
:1019F00003960E94BB2969817A818B819C812ED5B7
:101A00000F900F900F900F90DF91CF910895FF925C
:101A10000F931F93CF93DF93082F60E070E0CB010B
:101A20000E94DF2DFF24F3940E94B821EC01892B42
:101A300089F010E0CE3F8FEFD80769F0002361F105
:101A400060E070E0CB010E94DF2D81E090E0892B07
:101A500059F322C011E025D5EC01892B21F0CE3FAE
:101A60008FEFD80759F711111EC011E0229609F423
:101A700010E00E946821EC01892B21F0CE3F8FEF0E
:101A8000D807E1F6111111C011E0CE3F8FEFD80752
:101A900009F410E001110BC0CE01DF91CF911F912D
:101AA0000F91FF90089511E0E4CF11E0F3CF60E0D3
:101AB00070E0CB010E94DF2D1F25812F90E0C7CF62
:101AC000CF93DF938091AC06882321F060E070E033
:101AD000CB014CD635D6D0E0C0E0892B71F06AE05E
:101AE00070E080E090E00E94DF2D81E090DF28D65A
:101AF0002196C03D27E0D20781F727D60E942323F5
:101B00001092C4061092C3061092BD061092BE0633
:101B10001092BF061092C0061092B9061092BA0633
:101B20001092BB061092BC061092B5061092B60633
:101B30001092B7061092B8061092B1061092B20633
:101B40001092B3061092B4061092AD061092AE0633
:101B50001092AF061092B0064EEF5FEF6FEF7FEF7F
:101B600040934202509343026093440270934502B3
:101B70001092AC06E0EAF6E028E0DF011D922A951B
:101B8000E9F710929C0610929D0610929E06109204
:101B90009F06109298061092990610929A0610923B
:101BA0009B0610929406109295061092960610923B
:101BB000970610929006109291061092920610923B
:101BC0009306DF91CF9108951092D0061092D1061E
:101BD0001092D2061092D3061092CF068091D806AA
:101BE0009091D9069093CE068093CD061092CC06A4
:101BF0001092CB061092C7061092C8061092C90622
:101C00001092CA061092D5061092D40690E080E099
:101C10000895CF92DF92EF92FF920F931F93CF938D
:101C20008C01892B09F055C02091D8063091D90636
:101C30008091CD069091CE064091D8065091D9065C
:101C40005093CE064093CD062817390781F01092A5
:101C5000CC061092CB061092C7061092C8061092BE
:101C6000C9061092CA061092D5061092D406809129
:101C7000D8069091D906019761F58091D40690918C
:101C8000D506892B21F480914602811112C08091E2
:101C9000D4069091D5060197E1F48091C706909102
:101CA000C806A091C906B091CA060197A105B10561
:101CB00081F41092C7061092C8061092C9061092BD
:101CC000CA061092460282E090E09093D506809377
:101CD000D4068091D8069091D906019709F01CC1CD
:101CE0008091EE069091EF068017910709F014C1DC
:101CF0008091EA069091EB06A091EC06B091ED067A
:101D0000009709F409C12091E90621110DC0409105
:101D1000EA065091EB066091EC067091ED06452BBA
:101D2000462B472B09F4F8C02091D4063091D506F4
:101D30002230310509F0F0C02091CB062111ECC012
:101D4000FC01C080D180E280F3808091CF0688239F
:101D500009F4D3C08091DB069091DC06892B09F44D
:101D6000FDC02091DB063091DC0681E02230310598
:101D700009F080E02091DB063091DC06C1E02130E3
:101D8000310549F02091DB063091DC06C1E02230BC
:101D9000310509F0C0E0882309F456C02091E5061A
:101DA0003091E6064091E7065091E806C701B6017A
:101DB0000E94092D87FD14C02091E5063091E606AA
:101DC0004091E7065091E8066091D0067091D106E7
:101DD0008091D2069091D3060E94222C87FD22C0CA
:101DE0002091E5063091E6064091E7065091E8061D
:101DF000C701B6010E94092D181634F52091E50699
:101E00003091E6064091E7065091E8066091D006D1
:101E10007091D1068091D2069091D3060E94222C17
:101E2000811112C08091DD069091DE06A091DF063F
:101E3000B091E006892B8A2B8B2B19F481E08093DB
:101E4000CC0681E08093CB06CC2309F456C02091C8
:101E5000E5063091E6064091E7065091E806C70195
:101E6000B6010E94222C87FF14C02091E506309114
:101E7000E6064091E7065091E8066091D006709121
:101E8000D1068091D2069091D3060E94092D87FF3A
:101E900022C02091E5063091E6064091E706509178
:101EA000E806C701B6010E94222C811126C02091AC
:101EB000E5063091E6064091E7065091E80660910C
:101EC000D0067091D1068091D2069091D3060E94DF
:101ED000092D181694F48091DD069091DE06A091EC
:101EE000DF06B091E006892B8A2B8B2B19F481E059
:101EF0008093CC0681E08093CB0681E09091CB0665
:101F0000911180E08093CF06C092D006D092D10686
:101F1000E092D206F092D306012B09F067C18091BE
:101F2000D4069091D506892BD9F41092DA06109236
:101F3000CB0680914602882379F082E090E090936E
:101F4000D5068093D406109246022091D80630918F
:101F5000D90681E0232BE9F080E01BC081E00ACFA5
:101F6000109246028091DA06882349F01092CC063E
:101F70001092D5061092D4061092DA06EDCF809119
:101F8000D8069091D906892BE1F08091CB0610926A
:101F9000CB062091D4063091D5062230310509F4C4
:101FA0005EC088F42115310509F448C0213031059F
:101FB00009F4F3C01092CC061092CB061092DA0608
:101FC00038C081E0E6CF2330310509F4B1C02430B8
:101FD000310581F74091C7065091C8066091C90646
:101FE0007091CA06411551056105710561F04150B6
:101FF0005109610971094093C7065093C80660935F
:10200000C9067093CA064091C7065091C8066091F0
:10201000C9067091CA06452B462B472BD9F420914F
:10202000D6063091D7062130310509F046C010920E
:10203000CC061092D5061092D4060CC080914602B0
:10204000882341F082E090E09093D5068093D406F7
:10205000109246021092C5068091CC06CEC088230D
:10206000C9F38091DD069091DE06A091DF06B09164
:10207000E006181619061A061B060CF07DC08091A2
:10208000D8069091D906019709F076C08091DD06B7
:102090009091DE06A091DF06B091E0068093C7061E
:1020A0009093C806A093C906B093CA0683E090E057
:1020B0009093D5068093D406CDCF4091E106509100
:1020C000E2066091E3067091E406452B462B472B10
:1020D000A9F01092CC068091E1069091E206A091C1
:1020E000E306B091E4068093C7069093C806A093D8
:1020F000C906B093CA0681E090E0DACF882399F050
:102100008091470290914802A0914902B0914A0201
:102110008093C7069093C806A093C906B093CA06D9
:1021200084E090E0C5CF1092CC0682E090E0C0CF72
:102130008091C7069091C806A091C906B091CA06C1
:102140000097A105B10559F00197A109B109809344
:10215000C7069093C806A093C906B093CA0680919B
:10216000C7069091C806A091C906B091CA06892BEE
:102170008A2B8B2B09F06ECF8091470290914802F9
:10218000A0914902B0914A02892B8A2B8B2B09F42A
:102190004ECF81E08093CC06B3CF4091C7065091DB
:1021A000C8066091C9067091CA06411551056105BE
:1021B000710561F041505109610971094093C706E9
:1021C0005093C8066093C9067093CA064091C7062B
:1021D0005091C8066091C9067091CA06452B462BDE
:1021E000472B09F037CF8111C7CF9FCF8091C5060C
:1021F000882309F431CF8091C606CF911F910F91AA
:10220000FF90EF90DF90CF9008951092D00610923B
:10221000D1061092D2061092D3061092CF061092D9
:10222000D5061092D4061092CE061092CD061092CA
:10223000EF061092EE061092CC061092CB0610928A
:10224000C7061092C8061092C9061092CA061092CC
:10225000C6061092C5061092EA061092EB0610927E
:10226000EC061092ED061092E9061092E506109227
:10227000E6061092E7061092E80688EE93E0A0E0EA
:10228000B0E08093470290934802A0934902B09334
:102290004A021092E1061092E2061092E3061092B2
:1022A000E4061092DD061092DE061092DF06109210
:1022B000E0061092DC061092DB0681E08093460275
:1022C0001092DA061092D9061092D8061092D7060C
:1022D0001092D60690E080E008958091D806909103
:1022E000D906892B19F580914602882351F08091F7
:1022F000DA06811106C081E08093C6068093C50688
:1023000008952091DA063091460281E090E033236F
:1023100011F090E080E030E082239323892B21F0BC
:102320001092C60681E0EACF1092C506089582E0B9
:1023300090E0FA01918380838FEF9FEF0895CF9310
:10234000DF93EA01009711F00E943D241982188260
:1023500090E080E0DF91CF910895DB01009719F4C0
:102360008FEF8C9308952EEF2C93FC013F96EF3066
:10237000F10508F034C08827EF53FE4E8F4F0C94C0
:102380002334ED11EB11E911E711E511E111E3112E
:10239000DF11DD11DB11D811D411D011D611EF11DD
:1023A00080E311968C93089589E2FBCF82E2F9CF06
:1023B00011961C92089583E2F4CF81E2F2CF81E17D
:1023C000F0CF87E2EECF8AE2ECCF80E1EACF84E281
:1023D000E8CF88E2E6CF86E2E4CF81E3E2CF80E295
:1023E000E0CF8091FC069091FD0608959093FD0644
:1023F0008093FC0608958091FB0608959091FB065A
:10240000892B8093FB060895982F90958091FB0669
:1024100089238093FB0608958091FA0608958091A0
:10242000F8069091F90608956115710559F0FB01C0
:1024300030E020E070E060E02417350719F0611506
:10244000710511F0CB010895A081B181A817B907DA
:1024500009F4BF012F5F3F4F3696EECF8091FE0605
:1024600081111CC060D266D29093F1068093F00671
:102470000E943F1C0E94511C9093F5068093F40625
:102480000E94D0200E94D7209093F3068093F206FA
:1024900081E08093FE0690E080E0089584EF9FEF56
:1024A00008958F929F92AF92BF92CF92DF92EF9258
:1024B000FF920F931F93CF93DF9300D000D000D0F3
:1024C0001F92CDB7DEB71A86198618861F821E8224
:1024D0001D821C821B821A8219828091FE0607EFE0
:1024E0001FEF882309F49CC08E010D5F1F4F9E01D2
:1024F0002B5F3F4FAE01495F5F4FBE01675F7F4F6C
:1025000090E080E00E9454228C01009721F0059613
:10251000029708F0DBC029853A852115310509F4B9
:1025200002C1ED80FE804B815C81B701640F751F95
:102530008F8198858617970708F4F5C0E20EF31E81
:10254000D7019C91903C09F07FC04230510508F4BE
:102550007BC011968C914091FC065091FD06452B55
:1025600009F49CC0913F08F071C02CE1290F2D3077
:1025700008F48BC02DE2290F203108F489C0903C6B
:1025800021F48150823008F483C088E3890F8B30B6
:1025900008F481C09DEAC92E91E1D92EE7E9F1E165
:1025A0006D817E81AE014F5F5F4F89859A85199558
:1025B0005C01C114D104A1F189809A808114910435
:1025C00079F18B819C818815990508F487C010E00A
:1025D00000E04B815C8170E060E0C7010E944D34F7
:1025E00001151105E9F449815A8169857A858D8142
:1025F0009E81680F791FC501F6011995E980FA805F
:102600000D811E812F81388549855A856FEF7FEFB7
:1026100081E090E00E94EF218C01892B09F056C0E7
:10262000C8012A960FB6F894DEBF0FBECDBFDF916A
:10263000CF911F910F91FF90EF90DF90CF90BF90BF
:10264000AF909F908F90089580E085CF30E020E09C
:10265000220F331FF901E051F94F0190F081E02D75
:10266000309709F497CF892F90E01995009709F4D6
:1026700091CFDC011296ED91FC9113971496CD90B9
:10268000DC90309709F08CCF1FC021E030E0E0CF24
:1026900022E030E0DDCF23E030E0DACFD12CC12CD6
:1026A000EFE9F1E19F3F09F07BCFE091F006F09177
:1026B000F106309721F4C90104EF1FEF0CC08FEF32
:1026C00090E019950097A9F604EF1FEF89859A8588
:1026D000009709F4A5CF0E943D24A2CF0E941E239B
:1026E0008C0189859A850E943D2470E060E0C401D8
:1026F0000E94B72298878F830E94EC219E838D834E
:102700006F8178856115710559F0C8010E949C257B
:102710009A87898706EF1FEF892B09F058CF59CF89
:1027200008EF1FEF56CF08EF1FEFD0CF2091FE0626
:10273000222319F020E00C94561C87EF9FEF089598
:102740008091FC069091FD0608950E94DC200E9475
:102750003620F5D0E0EFF6E088E0DF011D928A95A3
:10276000E9F71092FE0690E080E008950C94931E25
:1027700021E040E050E0BA010C94561C86E090E065
:10278000FA019183808390E080E0089547E050E073
:1027900063E975E049CEDF92EF92FF920F931F93AA
:1027A000CF93DF938A01EC01C60FD71FE090020799
:1027B000F0900307D9800E940623D816190678F0F6
:1027C00082E090E0F801918380838EEF9FEFDF91AC
:1027D000CF911F910F91FF90EF90DF900895EF2818
:1027E00041F482E090E0F8019183808384EF9FEFD1
:1027F000EECF89818093010790E00196F8019183E3
:10280000808390E080E0E3CFCF93DF93EA010E94E2
:10281000441F882321F00E9413230E94451F82E059
:1028200090E0998388838BEF9FEFDF91CF9108959C
:10283000CF93DF93EB0186E0FB0111928A95E9F7D4
:102840008FEF8883D8DD8983E7DD8A83E8DD9D8388
:102850008C83DF91CF910895CF93DF93EA010E949B
:10286000471F811109C082E090E09983888385EF3A
:102870009FEFDF91CF91089590E080E0B7DD81E098
:1028800090E09983888390E080E0F3CF0F931F93CB
:10289000CF93DF93EA018C01060F171F0E94471F99
:1028A00081110BC082E090E09983888385EF9FEFD0
:1028B000DF91CF911F910F910895F80181818230AE
:1028C00038F082E090E0998388838EEF9FEFF0CF1D
:1028D00081E090E08BDD88E090E09983888390E050
:1028E00080E0E6CFCF93DF930097D1F4EB01FB01BB
:1028F000329686E0DF011D928A95E9F78FEF888393
:1029000085E089831A820E9406238B830E94052317
:102910009D838C8381E08E838F83DF91CF91089597
:10292000DF91CF911ACD86EC93E1909300078093CD
:10293000FF0608958091FF06909100070895109278
:1029400000071092FF0608958091020790910307F7
:102950000895411105C0611571058105910561F06A
:102960006093020770930307809304079093050711
:102970004093060781E0089580E00895FF920F9349
:102980001F93CF93DF938A01EC01C60FD71FF98005
:102990000E940623F816190668F082E090E0F8011C
:1029A000918380838EEF9FEFDF91CF911F910F91E5
:1029B000FF9008956C817D818E819F814B81C9DF5D
:1029C000811108C082E090E0F8019183808384EF58
:1029D0009FEFEACF89818093010790E00196F8018B
:1029E0009183808390E080E0DFCFCF93DF93EA0193
:1029F000FC01E60FF71F6481758186819781438111
:102A0000A8DF811109C082E090E09983888384EF78
:102A10009FEFDF91CF91089581E090E099838883C3
:102A200090E080E0F6CFE2E0F7E040815181628102
:102A30007381480F511D611D711D40835183628355
:102A400073830895CF93C09101074C2F50E060919C
:102A500002077091030701960E9444348C2FE3DF34
:102A600010920107CF910895009799F48091020781
:102A7000909103072FEFFB012083892B59F02091C0
:102A8000010730E02F5F3F4F2417350719F4CB01C2
:102A9000D9CF63CC0895009799F480910207909163
:102AA00003072FEFFB012083892B59F020910107A9
:102AB00030E02F5F3F4F2417350719F4CB01C2CF09
:102AC0004CCC089523E1AC01249FC001259F900DBB
:102AD0001124E0910B07F0910C07E80FF91F2381F7
:102AE00034812250310981E02230310508F080E044
:102AF00008950F931F93CF93DF9300910D071091CB
:102B00000E07D0E0C0E080E00C171D0749F491E00B
:102B1000811190E0892FDF91CF911F910F9108953E
:102B20008111F5CFCE01CEDF2196EECFA0910B071C
:102B3000B0910C07109729F120910D0730910E07E5
:102B400082179307F0F453E1589F9001599F300D7D
:102B50001124A20FB31FED91FC911197309789F0CA
:102B600012968C91681768F48DE0689FE00DF11D56
:102B7000112480819181892B21F081E09281491774
:102B800008F080E008959C0143E1429FC001439F0B
:102B9000900D1124E0910B07F0910C07E80FF91F3D
:102BA0008385823099F481E090E06581768140915F
:102BB0004B0250914C026417750711F490E080E0CD
:102BC000892B21F081E02230310508F080E0089562
:102BD000FC01A081B1818DE0689FA00DB11D112481
:102BE00013964D915C9185859685489F9001499FEC
:102BF000300D589F300D1124C9010196611103C099
:102C0000478144FD04960895EF92FF920F931F931E
:102C1000CF93DF93EA01FC01E60FF71F02811381D6
:102C2000E480F5804F2D6E2DC80180DF81110DC02D
:102C300082E090E0998388838EEF9FEFDF91CF91C0
:102C40001F910F91FF90EF900895C8013BDF8823FB
:102C500039F082E090E09983888388EF9FEFEECF90
:102C60001093520200935102E0925302F0925402E8
:102C700081E090E09983888390E080E0DFCFCF927D
:102C8000DF92EF92FF920F931F93CF93DF937A011E
:102C9000EC01C60FD71FC0905102D0905202009194
:102CA000530210915402412F602FC6013FDF811162
:102CB00010C082E090E0F701918380838AEF9FEF5C
:102CC000DF91CF911F910F91FF90EF90DF90CF9008
:102CD0000895C601F7DE882341F082E090E0F70115
:102CE0009183808388EF9FEFEBCF4C815D816E8174
:102CF0007F819A8189818F3F41F082E090E0F701E6
:102D0000918380838EEF9FEFDBCFE3E1EC9D900119
:102D1000ED9D300D1124E0910B07F0910C07E20FAF
:102D2000F31F0190F081E02D2DE0029FE00DF11DD9
:102D300011240190F081E02D27E0129FE00DF11D9C
:102D40001124808391838B818283438354836583A1
:102D500076831F5F1093540281E090E0F701918326
:102D6000808390E080E0ACCFEF92FF920F931F93AF
:102D7000CF93DF937A018C01060F171FC0910B07C9
:102D8000D0910C07209781F021E030E0F80182819A
:102D9000938140910D0750910E078417950710F00D
:102DA00030E020E0232B71F482E090E0F701918382
:102DB00080838EEF9FEFDF91CF911F910F91FF9056
:102DC000EF90089543E1489F9001499F300D1124F1
:102DD000C20FD31F77DE882341F082E090E0F70135
:102DE0009183808388EF9FEFE6CFF80124813581BE
:102DF00020383105C8F687818111D6CF4181842FD3
:102E000090E08F7E009741F082E090E0F70191839F
:102E1000808386EF9FEFCFCF4F833E832D83268124
:102E200028871986223010F421E0288721E030E03D
:102E3000F70131832083BFCF88E090E0FA019183CE
:102E4000808390E080E00895FB018FEF808381E133
:102E500081838FEF9FEF9383828380E890E0958357
:102E60008483168217820895FB018FEF808391E09F
:102E7000918382839383848384E3858381E090E0DC
:102E8000978386830895BF92CF92DF92EF92FF924D
:102E90000F931F93CF93DF93DA01FC01E60FF71F27
:102EA0008181813081F082E090E08D939C938FEF5F
:102EB0009FEFDF91CF911F910F91FF90EF90DF90E7
:102EC000CF90BF900895C281D381B480858106815F
:102ED0001781E0900B07F0900C07E114F10439F42E
:102EE00082E090E08D939C938CEF9FEFE2CF209156
:102EF0000D0730910E07C217D30738F082E090E03B
:102F00008D939C938EEF9FEFD4CFC230D10538F0D4
:102F100082E090E08D939C9386EF9FEFCACF9B2D2C
:102F20009D7FB1F78130A1F7B11005C001301105C7
:102F300031F080E004C081E002301105D0F3882335
:102F400039F36D01CE01BEDD882341F082E090E0CF
:102F5000F6019183808388EF9FEFABCF83E18C9F55
:102F6000F0018D9FF00D1124EE0DFF1DB38681E061
:102F7000848716870587108A178681E090E0F6011E
:102F80009183808390E080E094CF4CE050E06DEB43
:102F900075E04ACA8F929F92BF92CF92DF92EF92D2
:102FA000FF920F931F93CF93DF93EA01FC01E60F8B
:102FB000F71F828193810481B580E0910B07F09126
:102FC0000C07309791F482E090E0998388838CEF2E
:102FD0009FEFDF91CF911F910F91FF90EF90DF90C6
:102FE000CF90BF909F908F90089520910D073091C2
:102FF0000E078217930738F082E090E09983888368
:103000008EEF9FEFE6CF23E1289F6001299FD00C30
:103010001124EC0DFD1DE080F180E114F10499F222
:103020008281081748F78DE0089F80011124E00E87
:10303000F11EF70180819181892B29F6BB20E1F2F5
:10304000F7E0BF9E40011124C4010E940424F7014F
:1030500091838083E0910B07F0910C07EC0DFD1D2F
:103060000190F081E02DE00FF11F808191810097A8
:1030700039F482E090E0998388838DEF9FEFA9CFA8
:10308000A40170E060E00E944D3480910B079091A4
:103090000C07C80ED91EF60180819181080F191FF7
:1030A000F801B28281E090E09983888390E080E02B
:1030B00090CFAF92BF92CF92DF92FF920F931F9368
:1030C000CF93DF93EA01FC01E60FF71F8281938122
:1030D000F48000910B0710910C070115110581F484
:1030E00082E090E0998388838CEF9FEFDF91CF910E
:1030F0001F910F91FF90DF90CF90BF90AF900895F8
:1031000020910D0730910E078217930738F082E067
:1031100090E0998388838EEF9FEFE8CF2FEF2F0DFC
:103120002C3FA8F723E1289F6001299FD00C112490
:103130000C0D1D1DF80180819181892B89F6FDE020
:10314000FF9E50011124C5010E940424F8019183BF
:103150008083E0910B07F0910C07EC0DFD1D808141
:103160009181009739F482E090E0998388838DEF14
:103170009FEFBCCFA50170E060E00E944D34E0916C
:103180000B07F0910C07EC0DFD1DF28281E090E041
:103190009983888390E080E0A9CFCF92DF92EF926D
:1031A000FF920F931F93CF93DF93860F971FFC011E
:1031B0000281138180910B0790910C07892B81F07C
:1031C00082E090E0FA01918380838CEF9FEFDF91A2
:1031D000CF911F910F91FF90EF90DF90CF900895C6
:1031E000C801B0E0A0E00197A109B1098F3F9F4F4E
:1031F000A105B10540F082E090E0FA01918380835F
:103200008EEF9FEFE4CF7A0183E1809F6001819F81
:10321000D00C1124C6010E940424EC01009741F453
:1032200082E090E0F701918380838DEF9FEFCFCF15
:10323000A60170E060E00E944D34D0930C07C0936B
:103240000B0710930E0700930D0790E080E02FEF1F
:103250003FEF41E061E070E08017910741F481E0C9
:1032600090E0F7019183808390E080E0B0CF3A8BCB
:10327000298B1B864C877E876D87188A1F8601964F
:103280006396EACFEF92FF921F93CF93DF93EC0107
:1032900010E0F12CE12C6A811617B0F083E0689FF2
:1032A000B0011124AE014F5E5F4FC7010E94692437
:1032B000009721F02FEF3FEF3A8B298BDF91CF91D1
:1032C0001F91FF90EF900895612FCE0181DC61E0A6
:1032D00070E00E94B722E816F90608F47C011F5F2F
:1032E000DACFF8942091090730910A0781E021157F
:1032F000310509F080E0232B09F0789408952F928E
:103300003F924F925F926F927F928F929F92AF9275
:10331000BF92CF92DF92EF92FF920F931F93CF93C2
:10332000DF933C01660E771EF301828193814C018D
:10333000B12CA12CC0910B07D0910C07209769F0FC
:1033400021E030E060910D0770910E078617970716
:1033500010F030E020E0232BD1F482E090E0FA017D
:10336000918380838EEF9FEFDF91CF911F910F911B
:10337000FF90EF90DF90CF90BF90AF909F908F9095
:103380007F906F905F904F903F902F900895809224
:10339000550290925602A0925702B092580263E1F1
:1033A000689F9001699F300D1124C20FD31FF30154
:1033B0008181833040F082E090E0FA019183808344
:1033C00086EF9FEFD1CF2A012B813C81232BF1F493
:1033D000288139819F8191FF2EC0232B09F46FC072
:1033E000209110079A81422F490F5527551FBA0186
:1033F00041E050E06138710514F050E040E0452BA9
:1034000009F45DC02A87920F909310078150823093
:1034100008F481C066DF882309F4DAC0F3018181F2
:10342000813009F48DC008F47BC0823009F4C8C033
:1034300090E080E0ADC0232B09F441C020910F073C
:103440009A81E22FE90FFF27FF1F41E050E0ED3F97
:10345000F10514F050E040E0452B89F12A87920FE6
:1034600090930F07D3CFA081B181A20FB31F119604
:103470006C91060F111D0196295F3F4F8417950728
:1034800094F38D859E85089F1001099F300C189F2D
:10349000300C1124C114D104D1F48F8184FF17C0E2
:1034A0000E940523F5E02F0E311C21E082159305C3
:1034B00008F420E0A701435F5F4F21110EC082E0B6
:1034C00090E0F2019183808387EF9FEF4DCF0E94C0
:1034D00005232FEF221A320AE8CF88819981E80E5E
:1034E000F91EF70114830383FFEFCF1ADF0A7A0175
:1034F0008A818C151D0409F00CF48CCFE881F981C8
:10350000EE0DFF1D428150E030E020E010E000E0D1
:1035100090E080E0B3CFF12CE12CD12CC12CE8CF8E
:1035200081E090E09C838B83E4DA882309F480CFE8
:1035300081E090E00E94F61180E40E94041278CFAE
:1035400089899A89019661F083E090E09C838B835E
:1035500082E090E00E94F61180E40E94FE1168CFA4
:103560008D819E8120914B0230914C0282179307EE
:10357000D1F460914F0270915002AE014F5E5F4FE7
:1035800080914D0290914E020E945B250097E1F2DE
:10359000789422E030E0F20131832083892BA9F076
:1035A0008DEF9FEFE1CE22E082169104A104B104D9
:1035B0005CF6029748F6CE0165DE188A1F86E6CFD4
:1035C00082E090E09C838B8333CF90E080E0CCCE90
:1035D00082E090E0F2019183808385EF9FEFC4CE7B
:1035E0008F929F92AF92BF92CF92DF92EF92FF9213
:1035F0000F931F93CF93DF93EA018C01060F171FE0
:10360000F8018181833098F082E090E0998388838B
:1036100086EF9FEFDF91CF911F910F91FF90EF9079
:10362000DF90CF90BF90AF909F908F900895809142
:103630000B0790910C07892B61F081E090E02091BD
:103640000D0730910E07232B11F490E080E0892BB9
:1036500039F482E090E0998388838EEF9FEFDACF90
:1036600040DE882309F4E1C0F8018181813009F44A
:1036700097C0E8F0823099F420910D0730910E0741
:10368000E0910B07F0910C0790E080E041E050E002
:103690002817390709F0BFC02CDA811117C07894B8
:1036A00081E090E09983888390E080E0B3CF20911F
:1036B0000D0730910E07E0910B07F0910C0790E099
:1036C00080E041E050E02817390741F481E090E0C4
:1036D0000E94F61180E40E940412E1CF638174819C
:1036E000672B11F05483438301967396ECCFE091DE
:1036F0000B07F0910C07E00FF11F2381348122307A
:103700003105D9F4218932892F3F3F4FB1F425810A
:10371000368140914B0250914C022417350761F5D8
:10372000AF014F5E5F4F60914F02709150028091E8
:103730004D0290914E020E945B25EFEFCE1ADE0AF9
:10374000EE0AFE0A0D5E1F4F40910D0750910E07C5
:1037500070E060E0C416D506E606F7064CF5009763
:1037600031F27894892B09F49BCF82E090E0998321
:1037700088838DEF9FEF4ECF42E0C416D104E10461
:10378000F104DCF622303105C0F6CF017BDDE0919B
:103790000B07F0910C07E00FF11F108A1786CDCFB1
:1037A00010E000E090E080E0C12CD12C7601CCCF7D
:1037B0000097B9F610E000E0812C912C540183E0D1
:1037C000E82EF12C1AC0E0910B07F0910C07E00FE6
:1037D000F11F83819481029749F4F482E38282E0AD
:1037E00090E00E94F61180E40E94FE11FFEF8F1A14
:1037F0009F0AAF0ABF0A0D5E1F4F80910D0790917F
:103800000E07B0E0A0E088169906AA06BB06DCF217
:1038100090E080E0A6CF638174816230710511F47D
:10382000548343830196739633CF82E090E099836B
:10383000888385EF9FEFEECE0097B9F48FEFFB0101
:103840008083209155023091560243E1429FC0018E
:10385000439F900D1124E0910B07F0910C07E80FA6
:10386000F91F8285FB01818308950C94AD1188E0D6
:1038700090E0FA019183808390E080E008951092B7
:103880000A0710920907EBE0F7E086E0DF011D92DE
:103890008A95E9F785EC97E19093080780930707ED
:1038A0000895809107079091080708952F923F92FD
:1038B0004F925F926F927F928F929F92AF92BF9240
:1038C000CF92DF92EF92FF920F931F93CF93DF93EC
:1038D000CDB7DEB72F970FB6F894DEBF0FBECDBFC2
:1038E000F894E0910907F0910A073196F0930A07DE
:1038F000E0930907789440900B0750900C0741140F
:10390000510409F40DC2E0910D07F0910E07EF2B61
:1039100009F406C22D8749875A876B877C87988769
:103920008F831201B12CA12C10E000E080910D07D3
:1039300090910E07A816B90618F40115110529F182
:10394000F8948091090790910A07019790930A07CC
:10395000809309077894C8012F960FB6F894DEBFBC
:103960000FBECDBFDF91CF911F910F91FF90EF90D0
:10397000DF90CF90BF90AF909F908F907F906F908F
:103980005F904F903F902F9008957101E418F508D3
:10399000D10117968C91179781FD54C013968D9184
:1039A0009C911497039709F04DC015968D919C91A9
:1039B000EF81F8858E179F0709F044C0B50190E0AC
:1039C00080E081D48A8320910B0730910C073D83DE
:1039D0002C833D85332309F44CC04C815D81452BFC
:1039E00009F49BC180910D0790910E07A816B906A6
:1039F00008F093C1C501C7D88823E9F06C817D81A7
:103A00006E0D7F1D7D836C83DB011F968D919C91D4
:103A1000892B89F0D12CC12CF12CE12CAC81BD81FA
:103A200012968C9112978E151F0409F094F45096FB
:103A30001C921E921F972A81222321F0B50190E04B
:103A400080E043D43FEFA31AB30A43E1240E311CB4
:103A50006DCFAC81BD81ED91FC91EC0DFD1D85819B
:103A600096810BD7BFEFEB1AFB0AEDE0CE0ED11C0F
:103A7000D5CFEC81FD81309709F44FC180910D07BE
:103A800090910E07A816B90608F047C1EE0DFF1D6C
:103A9000FF87EE87C50177D88B83882339F1AE8500
:103AA000BF851F968D919C915097019621E01D96A0
:103AB0004D915C918417950709F020E02E831982BF
:103AC000712C10E000E0AE85BF8512968C917816BF
:103AD00008F45DC0EE85FF85878590890196658530
:103AE00076850E94ED33908B8787A5CFB1E0BE83AA
:103AF000E6CF992493946BC087D6F601968385838D
:103B000083C0D601ED90FC90B7E06B9EE00CF11CF9
:103B10001124F7016381748180818F3F61F121E07D
:103B200030E002C0220F331F8A95E2F7C901092E47
:103B3000000CAA0BBB0BFB01408151816281738198
:103B400084239523A623B72321E0892B8A2B8B2B53
:103B500009F420E0D4012C93D70111968C91F60141
:103B600023853485820F932F911D880E991E14860C
:103B7000138663949CC0418150E0C4010E94443488
:103B8000EBCF998206EF1FEFC6C01982C4C0F9813E
:103B9000F111A0CFEDE07E9E70011124AE85BF85AE
:103BA000CD90DC90CE0CDF1C17D49D838C83BB8121
:103BB000BB2309F49ECF81E0EE85FF852785308900
:103BC000232B09F080E0982E882309F459C0672D33
:103BD0008E859F850E94E815D60118969C938E933A
:103BE000179761E070E0C3D4EE85FF8521893289A3
:103BF0002F3F320709F480CFBC01C9019DD7D60100
:103C000016969C938E931597D60115968D919C913F
:103C10001697009709F4B5CFEC81FD818E0F9F1F99
:103C20001A969C938E931997AE85BF85ED91FC9162
:103C30001197EE0EFF1EF70121853285148613863B
:103C40001A968C91870DD9018D93711016C0EE854F
:103C5000FF85878184FF11C049855A856B857C85E6
:103C6000F9014183528363837483F70183859485CB
:103C70000496A80FB91F14861386F701B287A1878F
:103C8000D60115968D919C911697892B09F443C006
:103C9000EE85FF852581368180914B0290914C0203
:103CA0002817390779F019968D909C90612CD601D0
:103CB00012968C911297681608F423CF1A969C924C
:103CC0008E921997BE81BB2309F45FCF61E070E04B
:103CD000F601878190854BD4D6011796ED90FC9024
:103CE000189715964D915C91E1E0F0E0BA81BB2305
:103CF00011F0F0E0E0E00C811D819C01B501882706
:103D000099278E1B9F0B6BD38C01892B21F0F60119
:103D100085819681B2D57394D6CE0FEF1FEF8BCEEF
:103D200010E000E00DCE2F923F924F925F926F9283
:103D30007F928F929F92AF92BF92CF92DF92EF923B
:103D4000FF920F931F93CF93DF9380910B07909176
:103D50000C0710E000E0892BA9F0C3DA0AEF1FEF8F
:103D6000882381F020900D0730900E07C0910B073B
:103D7000D0910C07D12CC12C10E000E02C143D0494
:103D8000A9F47894C801DF91CF911F910F91FF9012
:103D9000EF90DF90CF90BF90AF909F908F907F90EB
:103DA0006F905F904F903F902F900895C6010E94B2
:103DB000C315882309F18B819C810397E9F48F85D2
:103DC0009889892BC9F0B60190E080E07CD221E08F
:103DD00030E0882311F030E020E044245524421ADA
:103DE000530AB12CA12C912C812C8A81881519049D
:103DF00009F038F4188A1F864FEFC41AD40A639664
:103E0000BDCFE881F981EA0DFB1D85819681892B63
:103E1000A1F161E070E087819085A9D33C01DCD2FB
:103E20008C01E881F981EA0DFB1D81859285258150
:103E30003681200F311FAC01421B530B9A01478181
:103E40005085421B530B70E060E00E944D34E881C6
:103E5000F981EA0DFB1DE780F084458156819301CD
:103E6000B601C201BCD28C01892B39F0E881F981FD
:103E7000EA0DFB1D8581968100D55FEF851A950AB5
:103E80008DE0A80EB11CB1CF2CCA789408952F9262
:103E90003F924F925F926F927F929F92AF92BF92AA
:103EA000CF92DF92EF92FF920F931F93CF93DF9306
:103EB00000D000D0CDB7DEB700910B0710910C07F2
:103EC000992493940115110509F43EC0A0900D07A3
:103ED000B0900E0706DA982E8823B1F110920C07E5
:103EE00010920B0710920E0710920D0710920F07F9
:103EF000109210078FEF9FEFDC0180935502909393
:103F00005602A0935702B0935802789480D31E8330
:103F10000D83C12CD12C7601C501B0E0A0E08983CE
:103F20009A83AB83BC8322242A94322C89819A8180
:103F3000AB81BC81C816D906EA06FB06F4F0C801BD
:103F40009CD480E40E940412892D26960FB6F89422
:103F5000DEBF0FBECDBFDF91CF911F910F91FF90BC
:103F6000EF90DF90CF90BF90AF909F907F906F9039
:103F70005F904F903F902F900895AD81BE81159630
:103F80008D919C91169720914B0230914C02821793
:103F90009307D1F451968D919C91BCD5ED81FE8112
:103FA00080819181B12CA12C412C512C3201892B83
:103FB00091F5BFEFCB1ADB0AEB0AFB0AED81FE811C
:103FC0007396FE83ED83B2CFB2E0CB16D104E10449
:103FD000F10424F7029710F7ED81FE81818992891F
:103FE0008F3F980709F011D5AD81BE8152963C9262
:103FF0002E925197D3CF8A0D9B1DDC018D919C9100
:10400000009709F03AD4BFEF4B1A5B0A6B0A7B0AA0
:10401000EDE0AE0EB11CAD81BE818D919C911197EA
:1040200012964C9150E070E060E04416550666062A
:1040300077060CF322D4BDCFCF93DF93EA0127DFBD
:10404000811109C082E090E09983888385EF9FEF1A
:10405000DF91CF91089581E090E00E94F61181E018
:1040600090E09983888390E080E0F2CF10DF109297
:10407000080710920707089542E050E065E076E0F7
:104080000C941412FF920F931F93CF93DF938A0126
:10409000EC01C60FD71FF980B9D20897F816190698
:1040A00071F068F082E090E0F801918380838EEFF8
:1040B0009FEFDF91CF911F910F91FF9008956C8139
:1040C0007D818E819F814B810E94A914811108C03E
:1040D00082E090E0F8019183808384EF9FEFE9CF45
:1040E000F9800E94A4144F2D50E0BE01685F7F4FFD
:1040F0000E94443489810E94131581E090E0F80108
:104100009183808390E080E0D4CFDF92EF92FF92A2
:104110000F931F93CF93DF938A01EC01C60FD71F34
:104120000E94A4147C01D98071D2DD2059F002973D
:1041300021E030E0D816190619F010F030E020E048
:10414000232B79F482E090E0F801918380838EEF55
:104150009FEFDF91CF911F910F91FF90EF90DF9034
:104160000895EF2841F482E090E0F8019183808384
:1041700084EF9FEFEECFF9800E94A4144F2D50E002
:10418000BE016E5F7F4F0E94443489810E941315E7
:1041900081E090E0F8019183808390E080E0D9CFC6
:1041A0008CE390E290931207809311070895809119
:1041B00011079091120708950895FC011182108251
:1041C000938382830895DB011D921C92DC01129679
:1041D000ED91FC9113977183608313967C936E939A
:1041E00012970895FC0180819181DB018D939C934E
:1041F000A081B181109741F08D919C919183808332
:10420000892B11F4F383E2830895FC01808191816D
:10421000DB018D939C93892B11F4738362837183EB
:1042200060830895FC011182108293838283089534
:10423000CF93DF931F921F92CDB7DEB71A821982F8
:10424000F894BE016F5F7F4F88E197E0CBDF8981F3
:104250009A81009709F011D389819A81892B89F776
:10426000BE016F5F7F4F8CE197E0BCDF89819A814F
:10427000009709F002D389819A81892B89F7789474
:104280000F900F90DF91CF910895CF93DF931F92FE
:104290001F92CDB7DEB71A821982F894BE016F5F04
:1042A0007F4F84E197E09EDF89819A81009709F032
:1042B000E4D289819A81892B89F778940F900F90A5
:1042C000DF91CF91089581E0089590E080E0089516
:1042D000EF92FF920F931F93CF93DF931F921F9242
:1042E000CDB7DEB71A8219828091130707EF1FEF4F
:1042F0008823A1F1F894BE016F5F7F4F8CE197E0B6
:1043000071DF789489819A81EE24E394F12C892BD2
:1043100051F4F894BE016F5F7F4F88E197E062DF50
:104320007894F12CE12C89819A810EEF1FEF009790
:10433000A9F0FC014281538164E070E044D68C0115
:10434000892B61F0F89469817A81C701880F991FE0
:10435000880F991F885E984F58DF7894C8010F9096
:104360000F90DF91CF911F910F91FF90EF900895E3
:104370000F931F93CF93DF9300D01F92CDB7DEB77B
:104380001C821B821A8219828091130707EF1FEF8C
:104390008823C1F0AE014D5F5F4F64E070E0CE0155
:1043A000019684D68C01892B69F4E981FA818B818D
:1043B0009C8193838283F89469817A8184E197E078
:1043C00002DF7894C8010F900F900F900F90DF914B
:1043D000CF911F910F91089589D7049608958F92D8
:1043E0009F92AF92BF92CF92DF92EF92FF920F9384
:1043F0001F93CF93DF931F921F92CDB7DEB71A8220
:104400001982BC016F5F7F4F6330710598F0AA2459
:10441000AA94BA2CC5010F900F90DF91CF911F91F4
:104420000F91FF90EF90DF90CF90BF90AF909F9053
:104430008F9008954115510551F3480159018A01A2
:104440006C01CADF8815990511F7E114F104F9F23E
:104450008E0D9F1DA816B906D0F2809113078823F0
:10446000F1F0F894B501645071099701AE014F5F06
:104470005F4FC8010496AFD65C01892B71F4898126
:104480009A81F80193838283C601880F991F880F50
:10449000991FB801885E984F96DE7894BBCF87EF5E
:1044A000A82EBB24BA94B6CFAF92BF92CF92DF9220
:1044B000EF92FF920F931F93CF93DF931F921F9260
:1044C000CDB7DEB71A821982892B09F047C0611572
:1044D000710509F443C04115510509F43FC0211588
:1044E000310509F43BC001151105C1F18091130795
:1044F0008823B9F179016A015B01F894BE016F5F0D
:104500007F4F84E197E06EDE789489819A810097ED
:1045100059F1DC0112966D917C91A801049674D634
:104520008C01E981FA81D501ED93FC93828193811D
:104530000496F601918380834FDFD7018D939C937E
:10454000C8010F900F90DF91CF911F910F91FF90B5
:10455000EF90DF90CF90BF90AF9008950FEF1FEFD7
:10456000EFCF07EF1FEFECCF0EEF1FEFE9CFCF93A9
:10457000DF93EC01672B71F4C2D68C179D0760F0B6
:10458000B5D62496C80FD91FB4D68C0F9D1FDF91C6
:10459000CF910895B1D6F1CF90E080E0F8CF0F939E
:1045A0001F93CF93DF932091130721112BC08B0111
:1045B000EC0188E197E001DE8CE197E0FEDD84E12B
:1045C00097E0FBDD97D00097C1F499D670E060E0EA
:1045D000CEDF49E552E062E070E07BD1009769F4FC
:1045E0008091590290915A029CD6B801CE01D1D443
:1045F000009719F421E020931307DF91CF911F91C9
:104600000F91089584EF9FEFF8CF76C678C6CF93C9
:10461000DF9378D6EC01892B11F40ADE36DECE0169
:10462000DF91CF910895CF93DF936CD6EC01892B66
:1046300009F4FEDDCE01DF91CF91089580915902FA
:1046400090915A020895CF93DF9380911307D0E0A1
:10465000C0E08823D1F06AD6EC01892BB1F4E8DD03
:1046600014DE8091590290915A02CFD1B5D2EC015B
:10467000892B59F488E197E0D5DD8CE197E0D2DD14
:1046800084E197E0CFDD10921307CE01DF91CF9147
:104690000895EF92FF920F931F93CF93DF93EC0156
:1046A0007A018B010F5F1F4F0E9DA0010F9D500DD2
:1046B0001E9D500D112470E060E00E944D3490E08A
:1046C00080E0F0E0E0E02FEFE816F90639F4DF9142
:1046D000CF911F910F91FF90EF9008951A82198248
:1046E0002883309711F0D283C1830196FE01C00F59
:1046F000D11FEACFAF92BF92CF92DF92EF92FF929B
:104700000F931F93CF93DF9380E099E07C012CEF10
:10471000E22243E050E06BE572E081E692E0E6D30E
:104720008BE5C82E82E0D82E91E6A92E92E0B92E14
:10473000C9E1DAE08E01D6014D915D916D01F5017F
:10474000619171915F01D8011196FC92EE921596DC
:104750005C934E93149713965C934E93129717960F
:104760007C936E9316979B012F5F3F4F249FC00150
:10477000259F900D349F900D112419969C938E9334
:104780001897E114F10411F0C70183DFF801808567
:104790009185E80EF91E065F1F4FF1E6CF16F2E095
:1047A000DF0649F6E2E2F7E08BED91E0DF019C01E4
:1047B0001D9221503040E1F71092210710922007FE
:1047C0001F8E1E8E1BA21AA219A218A21DA21CA225
:1047D0001FA21EA22A963AE0C733D30789F7109288
:1047E000160A1092150A1092180A1092170A90E0F1
:1047F00080E0DF91CF911F910F91FF90EF90DF90BC
:10480000CF90BF90AF9008950097F1F0F894A1E693
:10481000B2E0E9E1FAE030E020E04D915D91481727
:104820005907A8F0428153814115510581F08AE072
:10483000829FF001839FF00D1124E75EF54F808188
:104840009181009759F4789490E080E008952F5F6B
:104850003F4F3A962330310501F7F5CFDC01119631
:104860006D917C91718360834150510953834283E0
:10487000FC012193CF0178940895009749F1DC0160
:104880008E91863041F4E091170AF091180A309722
:10489000F9F0CD0119948630D8F4282F30E0F8943F
:1048A0008FEF8C938AE0829FF001839FF00D11249B
:1048B000E75EF54F8081918112969C938E931197BC
:1048C000B183A083828193810196938382837894BC
:1048D0000895CF92DF92EF92FF920F931F93CF93A1
:1048E000DF939C0185E297E08C7F4115510509F427
:1048F00089C02115310509F485C06115710509F4D8
:1049000081C08A01AB01B9016D5F7F4F6C7F9B0154
:104910002F5F3F4F249F7001259FF00C349FF00CB8
:104920001124F894E9E1FAE023E030E0E901A6A1DE
:10493000B7A1C68CD78CCD2809F058C0109709F0C4
:104940003EC0C0902007D090210728ED31E02C19FF
:104950003D092E153F0530F47894CFEFDFEF86EF59
:104960009FEF21C02AE02C9FF0012D9FF00D112414
:10497000E75EF54F9183808355834483538342835D
:1049800077836683F186E086009709F082DEEC0C7F
:10499000FD1CF0922107E09220077894CF3FDC07BE
:1049A000F1F290E080E0F801D183C083DF91CF91F4
:1049B0001F910F91FF90EF90DF90CF900895AE156B
:1049C000BF05A0F02AE02C9FF0012D9FF00D1124CF
:1049D000E75EF54F918380835583448353834283FD
:1049E000778366830097C9F254DED7CF8A0F9B1F67
:1049F0002F5F3F4F3A962630310509F097CFCFEF22
:104A0000DFEFCBCF8FEF9FEFD1CF9C0103970397C1
:104A100008F04EC0F89485E09AE0482F50E0241743
:104A200035079CF191E08AE0829FF001839FF00DB1
:104A30001124E75EF54F11821082158214821382D1
:104A40001282178216829923E1F0809120079091BB
:104A50002107E9E1FAE0268D378D232B49F426A1C1
:104A600037A12115310521F0821B930B17A216A245
:104A70003A962AE0E733F20771F790932107809383
:104A80002007789490E080E00895949FF001959F2E
:104A9000F00D1124E75EF54F40815181452B31F433
:104AA00040855185452B11F48150B7CF90E0BBCFA5
:104AB0008FEF9FEF08954115510549F1009739F1A6
:104AC0006115710521F1F8942091150A3091160AAB
:104AD000232BB9F42091170A3091180A232B89F45B
:104AE0009093160A8093150A7093180A6093170A18
:104AF000789426E030E090E080E0FA013183208372
:104B0000089578942FEF3FEF86EF9FEFF6CF8FEF6A
:104B10009FEF0895069769F4F8941092160A109280
:104B2000150A1092180A1092170A789490E080E003
:104B300008958FEF9FEF08956115710519F4F0E066
:104B4000E0E011C08630910581F4E091150AF09102
:104B5000160A3097A1F3CB0101961995009779F3C6
:104B6000FC0186E08193CF0108959C012350310917
:104B70002330310520F72AE0289FD001299FB00D6E
:104B80001124A75EB54F2D913C911197232BB9F2BB
:104B900016962D913C9117972617370780F2F894B7
:104BA00012962D913C9113972115310529F0ED9125
:104BB000FC911197309711F47894C1CF41815281C3
:104BC00011965C934E932150310913963C932E938A
:104BD000129781937894C7CFEDEFF8E088E191E0E8
:104BE000DF019C011D9221503040E1F7E2E2F7E045
:104BF0008BED91E0DF019C011D9221503040E1F7E7
:104C00001092210710922007E9E1FAE08CE3DF011E
:104C10001D928A95E9F7E5E1FAE084E0DF011D9253
:104C20008A95E9F790E080E00895CF93DF93C091F3
:104C30006702D0916802CF3FDC0759F420D49093EB
:104C400068028093670297FF09C0D0936802C093FF
:104C5000670284EF9FEFDF91CF91089590E080E0AD
:104C6000FACF8230910528F48093550A90E080E0D5
:104C700008958FEF9FEF08954F925F926F927F920A
:104C8000AF92BF92CF92DF92EF92FF920F931F935A
:104C9000CF93DF931F921F92CDB7DEB71A8219828E
:104CA000009709F478C06115710509F474C020916A
:104CB00067023091680207EF1FEF2F3F3F4F09F463
:104CC00044C06B015C01412C512C3201F12CE12CD0
:104CD00010E000E09E012F5F3F4FA6014E195F09D3
:104CE000B5016E0D7F1D809167029091680226D4F8
:104CF000892B09F04AC089819A81009741F4E11417
:104D0000F10429F42091550A222309F441C0E80E48
:104D1000F91EEC14FD04C8F480E8481684E858062F
:104D20008EE16806710418F560E070E0CB0147D7AA
:104D30002AE0420E511C611C711C0A3F4FEF140700
:104D400021F0043F8FEF1807A1F4C8010F900F90D6
:104D5000DF91CF911F910F91FF90EF90DF90CF9057
:104D6000BF90AF907F906F905F904F90089501EF4C
:104D70001FEF81E090E0013F2FEF120711F090E06C
:104D800080E0892B09F4A6CFE0CF04EF1FEFDDCF41
:104D90000AEF1FEFDACF0FEF1FEFD7CF4F925F92DF
:104DA0006F927F92AF92BF92CF92DF92EF92FF927B
:104DB0000F931F93CF93DF931F921F92CDB7DEB750
:104DC0001A821982009709F478C06115710509F4F7
:104DD00074C0209167023091680207EF1FEF2F3FE8
:104DE0003F4F09F444C06B015C01412C512C32014E
:104DF000F12CE12C10E000E09E012F5F3F4FA60157
:104E00004E195F09B5016E0D7F1D8091670290916B
:104E100068024AD3892B09F04AC089819A81009798
:104E200041F4E114F10429F42091550A222309F4F4
:104E300041C0E80EF91EEC14FD04C8F480E44816E5
:104E400082E458068FE06806710418F560E070E0AF
:104E5000CB01B5D62AE0420E511C611C711C0E3FDD
:104E60004FEF140721F0043F8FEF1807A1F4C8019A
:104E70000F900F90DF91CF911F910F91FF90EF90C6
:104E8000DF90CF90BF90AF907F906F905F904F90EA
:104E9000089502EF1FEF81E090E0023F2FEF12072D
:104EA00011F090E080E0892B09F4A6CFE0CF04EF69
:104EB0001FEFDDCF0EEF1FEFDACF0FEF1FEFD7CFD2
:104EC00080916702909168028F3F980749F0CFD296
:104ED000892B49F48FEF9FEF9093680280936702CC
:104EE00090E080E0089584EF9FEF0895CF92DF92E5
:104EF000EF92FF920F931F93CF93DF9321E0411521
:104F0000510509F020E04150510921112CC0DC016C
:104F1000FB01D12CC12C21E022C03FEFC31AD30AE0
:104F20007D010D911D91E701EA80FB80E016F106FD
:104F3000A8F420813181E280F380F182E082338322
:104F40002283ED90FC9011979D0122503109E901D7
:104F5000F982E88211961C930E9320E03296C416D3
:104F6000D506D8F2D2CFDF91CF911F910F91FF904C
:104F7000EF90DF90CF900895FC01680F791F90E0CB
:104F800080E0E617F70709F408952191820F911D3B
:104F9000F8CF2091560A211113C047DE009791F4F3
:104FA00010925C0A10925B0A10925A0A1092590AE7
:104FB0001092580A1092570A21E02093560A089539
:104FC00084EF9FEF0895AF92BF92CF92DF92EF925E
:104FD000FF920F931F93CF93DF93009709F460C064
:104FE0004630510508F45CC02091560AC7EFDFEF48
:104FF000222309F449C08C01060F171FF801C08055
:10500000D180C114D10409F44EC096012A5F3F4FEC
:105010004217530708F447C07C0180915B0A9091C6
:105020005C0A93838283B6016C5F7F4F5801A60EA2
:10503000B71EC801A1DFF5019183808364E070E0B1
:10504000C8011ADEEC01892BF9F481E090E009DE59
:10505000B601C801049610DEEC01892B91F462E0E0
:1050600070E0C50109DEEC01892B59F4C70105DCAC
:1050700080915B0A90915C0A019690935C0A809300
:105080005B0A90E080E0EDDDCE01DF91CF911F91D2
:105090000F91FF90EF90DF90CF90BF90AF90089569
:1050A000CFEFDFEFF1CFC9EFDFEFEECF6F927F925F
:1050B0008F929F92AF92BF92CF92DF92EF92FF9228
:1050C0000F931F93CF93DF9300D01F92CDB7DEB71E
:1050D000009709F47AC04115510509F476C0209172
:1050E000560A07EF1FEF222309F44DC03A017B0156
:1050F0005C0164E070E0CE01019650DE8C01892BEA
:1051000009F041C009811A810115110509F45AC03D
:10511000480186E0880E911CB701680D791D8091C9
:10512000690290916A0208DD6C01009709F450C091
:10513000A70170E060E00E944D3489819A81AB81C3
:10514000BC81EC0CFD1CF70181939193A193B19369
:105150007F0181E090E085DDB801C7011FDE892B6A
:1051600031F562E070E0C701800F911F17DE8C01FE
:10517000892BE9F490E080E074DDF501D182C082F2
:10518000F30191828082C8010F900F900F900F90D1
:10519000DF91CF911F910F91FF90EF90DF90CF9013
:1051A000BF90AF909F908F907F906F90089590E008
:1051B00080E057DDF50111821082F3011182108227
:1051C000C6015BDB09EF1FEFDECF0FEF1FEFDBCF79
:1051D00006EF1FEFD8CF0097A1F04115510589F0D8
:1051E0002115310571F0F90136966E177F0748F0E9
:1051F000DC012D933C93DA01ED93FC9390E080E089
:1052000008958FEF9FEF0895AF92BF92CF92DF92F4
:10521000EF92FF920F931F93CF93DF93009709F4C0
:105220005FC04115510509F45BC06530710508F494
:1052300057C02091560AC7EFDFEF222391F1DC011E
:10524000CD90DC9011971296ED91FC9196012A5F1A
:105250003F4FC9EFDFEF2617370719F5C091570AFF
:10526000D091580A209749F521E030E03093580A50
:105270002093570A7A018C01F0935A0AE093590A55
:105280005601B4E0AB0EB11CB50176DE0A0D1B1D54
:10529000F801208131818217930729F5D701CD923A
:1052A000DC92CE01DF91CF911F910F91FF90EF9093
:1052B000DF90CF90BF90AF9008952091590A309120
:1052C0005A0A2F5F3F4FCCEFDFEFE217F30790F260
:1052D000CBEFDFEF2E173F0768F2D0E0C0E0CACF78
:1052E000CFEFDFEFDECFC3EFDFEFDBCF84E090E087
:1052F000089582E090E008958CEF9FEF089580E29A
:1053000090E0089510925C0A10925B0A10925A0A7B
:105310001092590A1092580A1092570A90E080E0B1
:10532000089590936A028093690208958091560AC5
:10533000882391F0C5DD009789F410925C0A1092E1
:105340005B0A10925A0A1092590A1092580A109247
:10535000570A1092560A089590E080E00895009749
:1053600049F06115710531F0FC0111821082FB01D9
:10537000118210820895F3CF26E030E040E855E234
:1053800060E070E090E080E000C08130910569F05D
:105390001CF4892B39F008958230910549F0039768
:1053A00051F008958DE69AE05AC78AE09BE0FCCF61
:1053B00087EA9BE0F9CF84E49CE0F6CF1F920F923E
:1053C0000FB60F9211240BB60F922F933F934F936A
:1053D0005F936F937F938F939F93AF93BF93EF935D
:1053E000FF938FE89DEF9093250180932401BAD01D
:1053F000FF91EF91BF91AF919F918F917F916F91AD
:105400005F914F913F912F910F900BBE0F900FBE68
:105410000F901F9018958FE89DEF90932501809332
:105420002401A3E7B0E08C918E7F8C93E0E2F1E061
:1054300080818C7F8083E1E2F1E08081877E8083C0
:1054400080818460808380818C7F80838C91816067
:105450008C930895E3E7F0E0808190819E7F9083B4
:105460008170089581E0089510925D0A089568EEB4
:1054700073E080E090E0A3D390E080E0089526E020
:1054800030E040E050E16EE070E090E080E07DDFF1
:105490008DE69AE01AD6892B21F08DE69AE02FD678
:1054A000F7CF90E080E00895CF92DF92EF92FF92E5
:1054B0000F931F93CF93DF936B017A01E901198258
:1054C00018828DE69AE001D6892B69F18601CC24F9
:1054D000C39482E0D82E80915D0A811110C08DE6C0
:1054E0009AE00DD60297B9F7C0925D0AF801D19201
:1054F0008F0188819981019699838883ECCF888177
:1055000099818E159F0578F48DE69AE0F8D58F3F46
:105510009807A9F3F80181938F01888199810196F9
:1055200099838883ECCF90E080E0DF91CF911F9149
:105530000F91FF90EF90DF90CF9008950F931F93FE
:10554000CF93DF93EA0189018DE69AE00E94BF3391
:10555000F801D183C08390E080E0DF91CF911F916B
:105560000F910895CF92DF92EF92FF920F931F93C6
:10557000CF93DF931F921F92CDB7DEB78091600A61
:1055800091E0980F9093600A882399F021E030E031
:105590003093630A2093620A8093600A0F900F9001
:1055A000DF91CF911F910F91FF90EF90DF90CF90FF
:1055B0000895CE0101960E947E0578940091910590
:1055C00010919205F801C28CD38CE48CF58C0E946A
:1055D0008605B701A60190E080E00E94EF04F894F0
:1055E0008091600A81508093600A8A81882389F0C3
:1055F00080915F0A91E0980F90935F0A882349F0A9
:1056000021E030E03093630A2093620A80935F0ABE
:10561000C5CF80915F0A882309F4C0CF8091610AC9
:105620008111BCCF81E08093610A7894F80122A1B6
:1056300033A144A155A1AAE0B0E00E942B346B0134
:105640007C010E946608B701A60181E090E00E94FB
:10565000EF04F89480915F0A815080935F0A8091F3
:10566000610A81508093610A99CF0F931F93CF9362
:10567000DF931092ED131092EC13D7D27DDEC09120
:105680009105D0919205198218826FEF7FEFCB01BF
:105690000E94730570E060E090E080E00E94EC03FF
:1056A000009709F03AC00E94E808F8947894BE0187
:1056B000675D7F4F8A819B810E94EF03892B59F49C
:1056C0006FEF7FEFCB010E9484040E946D05882359
:1056D00011F081E08DA7F8949EDE0E94700588236A
:1056E00011F080E008C00E946D058111FACF81E0C1
:1056F0009DA59111F6CF8093EC1378940E94F1113F
:105700008C0178948091EC1381110CC00E94E70AFF
:105710000E945105F89490E080E0DF91CF911F91B5
:105720000F9108950E944F050E9470058823D9F0BB
:1057300081E08093ED139091ED1381E0911180E071
:105740008093EC138091ED13811184DE01301105FB
:1057500029F40E94F111892B09F486DE0E94F111CF
:105760008C0180DECFCF0E946D058111E1CF81E0F9
:105770009DA59111DECF80E0DCCF5058BB27AA2732
:105780000ED00DC1FED030F003D120F031F49F3F98
:1057900011F41EF4F3C00EF4E095E7FBE9C0E92F25
:1057A0000FD180F3BA17620773078407950718F0C3
:1057B00071F49EF527C10EF4E0950B2EBA2FA02DA3
:1057C0000B01B90190010C01CA01A0011124FF27AE
:1057D000591B99F0593F50F4503E68F11A16F040A9
:1057E000A22F232F342F4427585FF3CF46953795A8
:1057F0002795A795F0405395C9F77EF41F16BA0B6D
:10580000620B730B840BBAF09150A1F0FF0FBB1F1A
:10581000661F771F881FC2F70EC0BA0F621F731F63
:10582000841F48F4879577956795B795F7959E3FC0
:1058300008F0B3CF9395880F08F09927EE0F97954E
:105840008795089571D008F481E0089504D0689494
:10585000B111D9C00895BCD088F09F5790F0B92FEE
:105860009927B751A0F0D1F0660F771F881F991FB5
:105870001AF0BA95C9F712C0B13081F0C3D0B1E0C7
:105880000895C0C0672F782F8827B85F39F0B93FD7
:10589000CCF3869577956795B395D9F73EF49095B7
:1058A0008095709561957F4F8F4F9F4F0895E89435
:1058B00009C097FB3EF490958095709561957F4F58
:1058C0008F4F9F4F9923A9F0F92F96E9BB27939506
:1058D000F695879577956795B795F111F8CFFAF416
:1058E000BB0F11F460FF1BC06F5F7F4F8F4F9F4F47
:1058F00016C0882311F096E911C0772321F09EE8A5
:10590000872F762F05C0662371F096E8862F70E00A
:1059100060E02AF09A95660F771F881FDAF7880FE4
:105920009695879597F90895990F0008550FAA0B3A
:10593000E0E8FEEF16161706E807F907C0F01216A2
:105940001306E407F50798F0621B730B840B950BA5
:1059500039F40A2661F0232B242B252B21F40895FA
:105960000A2609F4A140A6958FEF811D811D089597
:1059700097F99F6780E870E060E008959FEF80EC02
:10598000089500240A9416161706180609060895A5
:1059900000240A9412161306140605060895092E0B
:1059A0000394000C11F4882352F0BB0F40F4BF2B7A
:1059B00011F460FF04C06F5F7F4F8F4F9F4F0895BA
:1059C00057FD9058440F551F59F05F3F71F04795B0
:1059D000880F97FB991F61F09F3F79F08795089595
:1059E000121613061406551FF2CF4695F1DF08C0B4
:1059F000161617061806991FF1CF869571056105D1
:105A000008940895E894BB2766277727CB0197F978
:105A100008958ADF08F48FEF08950BD0C0CFB1DF6F
:105A200028F0B6DF18F0952309F0A2CFA7CF1124F4
:105A3000EACFC6DFA0F3959FD1F3950F50E0551F35
:105A4000629FF001729FBB27F00DB11D639FAA27D3
:105A5000F00DB11DAA1F649F6627B00DA11D661F22
:105A6000829F2227B00DA11D621F739FB00DA11D43
:105A7000621F839FA00D611D221F749F3327A00DFD
:105A8000611D231F849F600D211D822F762F6A2F99
:105A900011249F5750408AF0E1F088234AF0EE0F1E
:105AA000FF1FBB1F661F771F881F91505040A9F72B
:105AB0009E3F510570F05CCFA6CF5F3FECF3983E60
:105AC000DCF3869577956795B795F795E7959F5F92
:105AD000C1F7FE2B880F911D9695879597F908952C
