:10000000D5C0000004C1000002C1000000C1000012
:10001000FEC00000FCC00000FAC00000F8C00000F4
:10002000F6C00000F4C00000F2C00000F0C0000004
:10003000EEC00000ECC00000EAC00000E8C0000014
:10004000E6C00000E4C00000E2C00000E0C0000024
:10005000DEC00000DCC00000DAC000000C944C28B8
:10006000D6C000000C94DC2A0C94122BD0C00000E7
:10007000CEC00000CCC00000CAC00000C8C0000054
:10008000C6C00000C4C00000C2C00000C0C0000064
:100090000C94682B0C949E2BBAC00000B8C00000D2
:1000A000B6C00000B4C00000B2C00000B0C0000084
:1000B000AEC00000ACC00000AAC00000A8C0000094
:1000C000A6C00000A4C000000C94D8240C94F42B0B
:1000D0000C942A2C9CC000000C94802C0C94B62C00
:1000E00096C00000010210202008081020401020B7
:1000F00040800201020108040201010204081020EC
:1001000040808040201008040201800402018040E9
:100110002010080402010804020101020408102052
:1001200040800102040810204080050505050705F0
:1001300008080808020202020A0A08080404040463
:10014000010101010101010103030303030303038F
:10015000040707070C0C0C0C0C0C0C0C020202021E
:1001600006060606060606060B0B0B0B0B0B0B0B07
:1001700000002200250028002B002E003100340052
:1001800002010000050108010B010000210024000C
:1001900027002A002D003000330001010000040177
:1001A00007010A013B2BC72B532CDF2C11241FBE48
:1001B000CFEFD1E2DEBFCDBF00E00CBF19E0A0E081
:1001C000B2E0E6E4FBE500E00BBF02C007900D9251
:1001D000AA30B107D9F72BE1AAE0B9E001C01D921E
:1001E000AD38B207E1F710E0C6EDD0E000E006C0A0
:1001F00021970109802FFE010E94702DC23DD10779
:1002000080E00807A9F70E94DA250C94A12DF8CE0A
:10021000CF93DF93882349F0EB0181500E9453294B
:1002200099838883DF91CF910895FB011182108219
:10023000F9CF0F931F938B019C0183E0369527958F
:10024000179507958A95D1F7065F164F462F477089
:1002500021E030E0F90102C0EE0FFF1F4A95E2F7FE
:10026000AF01F80120812423CB010196211102C0A6
:1002700090E080E01F910F9108950F931F938B01E1
:100280009C0183E036952795179507958A95D1F7B8
:10029000677081E090E001C0880F6A95EAF7F80185
:1002A000E65FF64F2081452B31F4809582238083D1
:1002B0001F910F910895822BFACFCF92DF92EF9288
:1002C000FF92CF93DF936B017C0160E086E3C81659
:1002D000D104E104F10490F486E38C0D0E947629A8
:1002E000E6012196AE01C701B601C7DFCE01DF915D
:1002F000CF91FF90EF90DF90CF9008958C2DEECFAF
:10030000882341F08150682F70E090E080E050E059
:1003100040E0B3CF089590E080E008950F931F93DD
:10032000009709F487C06115710509F483C0009135
:1003300004021091050220910602309107020E3F3F
:100340001F4F2F4F3F4F09F066C04FEF5FEFBA01CD
:1003500040930402509305026093060270930702D3
:1003600040910402509105026091060270910702CB
:10037000DC011296ED91FC9180819181A281B38183
:100380008093810990938209A0938309B093840993
:1003900084819581A681B78180937D0990937E09A0
:1003A000A0937F09B093800980859185A285B3854C
:1003B0008093790990937A09A0937B09B0937C0983
:1003C00084859585A685B785809375099093760970
:1003D000A0937709B093780910927109109272096D
:1003E0001092730910927409CCD686EE98E090931F
:1003F0001409809313099093160980931509B0D5B9
:10040000009731F421E030E030938609209385098C
:100410001F910F91089500910402109105022091FF
:10042000060230910702DB010D931D932D933C933F
:10043000139796CF8FEF9FEFEBCF8F929F92AF9254
:10044000BF92CF92DF92EF92FF921F93CF93DF93F1
:100450004B015C011091880982E090E0909386093D
:100460008093850981149104A104B10441F4809121
:100470008809811104C080918709C1E08111C0E021
:10048000C12CD12C760180918809811106C0809100
:100490008709811102C0CC23D9F083E090E09093CA
:1004A000860980938509CC2379F1CCE9DFEF11111E
:1004B00002C00E944A0CCE01DF91CF911F91FF90A4
:1004C000EF90DF90CF90BF90AF909F908F90089566
:1004D0006AE070E080E090E00E94BB2880E1C80EF6
:1004E00087E2D81EE11CF11C8FEF88169806A8063B
:1004F000B80631F0C1E08C149D04AE04BF0408F0CE
:10050000C0E080E061D5BFCFD0E0C0E0D0CFCF92D7
:10051000DF92EF92FF920F931F93CF93DF938F3F62
:10052000910511F008F050C020918509309186099D
:100530002330310539F02091850930918609213029
:10054000310531F424E030E03093860920938509A9
:100550006A017B01EC0182309105A0F011E0AE014F
:10056000C701B601FCD4AB01BC01CE011123F9F0E7
:10057000DF91CF911F910F91FF90EF90DF90CF907F
:100580000C94730E8C01000F111F0D5E164FD801D5
:100590008D919C91892B11F30E947D0E0297F1F6AB
:1005A000D801ED91FC91CE011995182FD8CF0E945A
:1005B000950E90E080E0DF91CF911F910F91FF9019
:1005C000EF90DF90CF9008958FEF9FEFF4CF80E012
:1005D000FBC4CF93DF9386E090E0909386098093ED
:1005E00085094BD5EC01E3E1F9E084E0DF011D92E0
:1005F0008A95E9F70E94E20B10928609109285090C
:10060000CE01DF91CF91089580918709089580915F
:1006100070090895609304027093050280930602A6
:100620009093070290E080E008954F925F926F925E
:100630007F928F929F92AF92BF92CF92DF92EF9272
:10064000FF920F931F93CF93DF931F921F92CDB70B
:10065000DEB7C0900002D0900102E0900202F0905C
:100660000302A701960160917B1B70917C1B809116
:100670007D1B90917E1B0E94C726882341F0C0926B
:100680007B1BD0927C1BE0927D1BF0927E1B65E46D
:1006900070E080E090E0CDDD90937A1B8093791B31
:1006A00043E050E0BE016F5F7F4FB2DD69817A8128
:1006B00090E080E00E94332760936B0E70936C0E85
:1006C00080936D0E90936E0EE090A50EF090A60EA6
:1006D000F70181809280A380B4809701285D3C4F10
:1006E00069018701085F1F4F8A9489288A288B280F
:1006F000B9F0812C912C5401839481829282A3823F
:10070000B48221E02583F60180809180A280B380AD
:10071000F80181929192A192B192CE16DF06C9F7AB
:100720006093730E7093740E8093750E9093760E93
:10073000812C912C5401F80140805180628073809B
:1007400061937193819391938F01E05EFC4F2081BF
:100750003181428153810E94E9279B01AC01C5018F
:10076000B4010E9463264B015C01C201D301BC01AC
:10077000CD01C016D106F9F6F701E45BF94F2081EF
:100780003181428153810E94E927A50194010E9491
:1007900063266093730E7093740E8093750E90931E
:1007A000760E29E23CE54FE950E40E94E92720E07B
:1007B00030EC4FE754E40E94CB269B01AC0169E288
:1007C0007CE58FE990E40E94CB2620E030E040E811
:1007D0005FE30E94622620E03CE849E357E40E9480
:1007E000E92720E030E84BEB56E40E94622620E047
:1007F00030E84BEB55E40E94CB2620E030E044EBA0
:1008000052E40E94E92760936F0E7093700E8093FC
:10081000710E9093720EE0902115F0902215F70161
:1008200081809280A380B4809701285D3C4F69014C
:100830008701085F1F4F8A9489288A288B28B9F07E
:10084000812C912C5401839481829282A382B48260
:1008500021E02583F60180809180A280B380F80199
:1008600081929192A192B192CE16DF06C9F7609360
:10087000770E7093780E8093790E90937A0E812C78
:10088000912C5401F8014080518062807380619303
:100890007193819391938F01E05EFC4F20813181B0
:1008A000428153810E94E9279B01AC01C501B4013B
:1008B0000E9463264B015C01C201D301BC01CD0142
:1008C000C016D106F9F6F701E45BF94F20813181BA
:1008D000428153810E94E927A50194010E94632669
:1008E0006093770E7093780E8093790E90937A0EC2
:1008F00060914709709148098091490990914A098E
:100900006F5F7F4F8F4F9F4F6093470970934809E8
:100910008093490990934A090E9433279B01AC01B7
:1009200060914B0970914C0980914D0990914E094D
:100930000E94E92760934309709344098093450915
:10094000909346090F900F90DF91CF911F910F91D7
:10095000FF90EF90DF90CF90BF90AF909F908F90DF
:100960007F906F905F904F900895CF92DF92EF92BB
:10097000FF9280E090E0A0E8BFEB80934F09909356
:100980005009A0935109B09352098AE097EDA3E270
:10099000BCE380934B0990934C09A0934D09B0930D
:1009A0004E0984E095E9AEECB4E780933109909369
:1009B0003209A0933309B09334098DE69EEDA8E384
:1009C000B5E68093350990933609A0933709B09323
:1009D000380982EB94E9AEE2B8E08093390990934C
:1009E0003A09A0933B09B0933C0984E29BE2A0EF53
:1009F000B1E980933D0990933E09A0933F09B093DC
:100A0000400981E299E09093300980932F0987E1B2
:100A100099E0909322098093210986E798E09093CA
:100A200018098093170990931A09809319099093D4
:100A30001C0980931B0990931E0980931D099093B4
:100A4000200980931F0981E499E0909326098093FF
:100A5000250981E399E0909324098093230983E495
:100A600099E090932809809327091092731B809135
:100A7000000290910102A0910202B09103028093C2
:100A80007B1B90937C1BA0937D1BB0937E1BC12C82
:100A9000D12C7601C394C092741BD092751BE09246
:100AA000761BF092771B65E470E080E090E005DC57
:100AB00090937A1B8093791B81E08093781B10922E
:100AC0007B0EC0927C0ED0927D0EE0927E0EF09254
:100AD0007F0EC092A10ED092A20EE092A30EF092D1
:100AE000A40E1092A80E1092A90E1092AA0E1092A7
:100AF000AB0E1092CF111092D0111092D111109212
:100B0000D211E2E5F5E0A3EDB1E14191519161919E
:100B100071914D935D936D937D9388E0E637F8076F
:100B2000A1F71092A70E87EA9EE09093A60E8093FD
:100B3000A50E81E08093800E1092F71481E090E082
:100B4000A0E0B0E08093F8149093F914A093FA1405
:100B5000B093FB1480931D1590931E15A0931F1541
:100B6000B093201510922415109225151092261579
:100B70001092271510924B1810924C1810924D1885
:100B800010924E18EEE2F2E0AFE4B8E141915191DB
:100B9000619171914D935D936D937D9385E0E23505
:100BA000F807A1F71092231583E295E1909322159F
:100BB0008093211581E08093FC14FF90EF90DF90EB
:100BC000CF9008958091731B81111DC081E08093A7
:100BD000731B8091741B9091751BA091761BB09133
:100BE000771B0197A105B10571F48091781B8823CB
:100BF00051F065E470E080E090E01BDB90937A1B9D
:100C00008093791B7DDB80917B0E811132C081E066
:100C100080937B0E80917C0E90917D0EA0917E0E34
:100C2000B0917F0E0197A105B10519F58091800E55
:100C30008823F9F0E091A50EF091A60E81819281B2
:100C4000A381B4810197A105B10541F482E090E050
:100C5000A0E0B0E081839283A383B4838FEF9FEF02
:100C6000DC018093A10E9093A20EA093A30EB093EB
:100C7000A40E8091A70E81111BC081E08093A70E66
:100C80008091A80E9091A90EA091AA0EB091AB0EE2
:100C90000197A105B10561F482E090E0A0E0B0E029
:100CA0008093A80E9093A90EA093AA0EB093AB0EBA
:100CB0008091F714811132C081E08093F714809104
:100CC000F8149091F914A091FA14B091FB140197C3
:100CD000A105B10519F58091FC148823F9F0E09184
:100CE0002115F091221581819281A381B481019710
:100CF000A105B10541F482E090E0A0E0B0E081837D
:100D00009283A383B4838FEF9FEFDC0180931D1543
:100D100090931E15A0931F15B09320158091231555
:100D200081111BC081E0809323158091241590913F
:100D30002515A0912615B09127150197A105B1059C
:100D400061F482E090E0A0E0B0E0809324159093FD
:100D50002515A0932615B093271508954F925F92FD
:100D60006F927F928F929F92AF92BF92CF92DF92BB
:100D7000EF92FF920F931F93F89440906009509068
:100D800061096090620970906309C0905409D09025
:100D90005509E0905609F0905709452B09F0A4C079
:100DA0009B01AC01241935094609570929013A016B
:100DB00000915C0910915D0920915E0930915F09F5
:100DC00048015901840C951CA61CB71C801691067D
:100DD000A206B306A0F40091580910915909209178
:100DE0005A0930915B090F5F1F4F2F4F3F4F009300
:100DF00058091093590920935A0930935B0980923E
:100E00005C0990925D09A0925E09B0925F09009121
:100E100058091091590920915A0930915B09809223
:100E2000640990926509A0926609B09267090093DF
:100E300068091093690920936A0930936B096093DC
:100E40006009709361098093620990936309A0E13E
:100E5000B7E2A30192010E94782D6C0D7D1D8E1DBD
:100E60009F1D609354097093550980935609909380
:100E70005709009104021091050220910602309159
:100E800007020F3F1F4F2F4F3F4FF1F00091040219
:100E90001091050220910602309107020E3F1F4F6C
:100EA0002F4F3F4F89F0C0900402D0900502E09090
:100EB0000602F090070221E08C149D04AE04BF04EA
:100EC00008F420E02093700978941F910F91FF900F
:100ED000EF90DF90CF90BF90AF909F908F907F90DA
:100EE0006F905F904F9008954B015C0184189508B6
:100EF000A608B708A3019201261B370B480B590B14
:100F00006415750586059705D0F082169306A4062C
:100F1000B50640F420E030E0A90181149104A10459
:100F2000B10491F4A0E1B7E20E94782DA7019601E7
:100F3000261B370B480B590BCA01B901C5CF8216C6
:100F40009306A406B50670F7A0E1B7E2A5019401E7
:100F50000E94782D6C0D7D1D8E1D9F1DB5CFFECE80
:100F6000CF93DF9300D01F92CDB7DEB71C821B82D8
:100F70001A82198210926C0910926D0910926E09F2
:100F800010926F09BE016F5F7F4FCE0103960E94E2
:100F9000A92469817A818B819C810E94991D009787
:100FA00061F4BE016F5F7F4FCE0103960E94B524AE
:100FB00069817A818B819C812ED50F900F900F9043
:100FC0000F90DF91CF910895FF920F931F93CF93CE
:100FD000DF93082F60E070E0CB010E94BB28FF2464
:100FE000F3940E94821CEC01892B89F010E0CE3F23
:100FF0008FEFD80769F0002361F160E070E0CB016A
:101000000E94BB2881E090E0892B59F322C011E0B7
:1010100025D5EC01892B21F0CE3F8FEFD80759F76A
:1010200011111EC011E0229609F410E00E94321C3A
:10103000EC01892B21F0CE3F8FEFD807E1F611119B
:1010400011C011E0CE3F8FEFD80709F410E0011175
:101050000BC0CE01DF91CF911F910F91FF900895AA
:1010600011E0E4CF11E0F3CF60E070E0CB010E942B
:10107000BB281F25812F90E0C7CFCF93DF938091AE
:101080007009882321F060E070E0CB014CD635D6A2
:10109000D0E0C0E0892B71F06AE070E080E090E081
:1010A0000E94BB2881E090DF28D62196C03D27E032
:1010B000D20781F727D60E94ED1D10928809109261
:1010C0008709109281091092820910928309109267
:1010D000840910927D0910927E0910927F09109266
:1010E00080091092790910927A0910927B09109266
:1010F0007C09109275091092760910927709109266
:101100007809109271091092720910927309109265
:1011100074094EEF5FEF6FEF7FEF4093040250933F
:101120000502609306027093070210927009E4E6CC
:10113000F9E028E0DF011D922A95E9F71092600995
:1011400010926109109262091092630910925C0971
:1011500010925D0910925E0910925F091092580971
:101160001092590910925A0910925B091092540971
:10117000109255091092560910925709DF91CF919C
:101180000895109294091092950910929609109260
:1011900097091092930980919C0990919D099093D1
:1011A0009209809391091092900910928F091092E0
:1011B0008B0910928C0910928D0910928E09109251
:1011C00099091092980990E080E00895CF92DF92FB
:1011D000EF92FF920F931F93CF938C01892B09F00D
:1011E00055C020919C0930919D0980919109909161
:1011F000920940919C0950919D0950939209409306
:1012000091092817390781F01092900910928F09DF
:1012100010928B0910928C0910928D0910928E09F0
:10122000109299091092980980919C0990919D09BA
:10123000019761F58091980990919909892B21F482
:1012400080910802811112C08091980990919909AA
:101250000197E1F480918B0990918C09A0918D09FF
:10126000B0918E090197A105B10581F410928B0907
:1012700010928C0910928D0910928E09109208021A
:1012800082E090E0909399098093980980919C095D
:1012900090919D09019709F01CC18091B20990912C
:1012A000B3098017910709F014C18091AE0990919C
:1012B000AF09A091B009B091B109009709F409C133
:1012C0002091AD0921110DC04091AE095091AF0997
:1012D0006091B0097091B109452B462B472B09F459
:1012E000F8C020919809309199092230310509F010
:1012F000F0C020918F092111ECC0FC01C080D18089
:10130000E280F38080919309882309F4D3C080910F
:101310009F099091A009892B09F4FDC020919F0994
:101320003091A00981E02230310509F080E0209160
:101330009F093091A009C1E02130310549F0209189
:101340009F093091A009C1E02230310509F0C0E0C9
:10135000882309F456C02091A9093091AA09409127
:10136000AB095091AC09C701B6010E94E52787FD82
:1013700014C02091A9093091AA094091AB0950915C
:10138000AC096091940970919509809196099091AA
:1013900097090E94C72687FD22C02091A909309194
:1013A000AA094091AB095091AC09C701B6010E944E
:1013B000E527181634F52091A9093091AA09409122
:1013C000AB095091AC096091940970919509809195
:1013D0009609909197090E94C726811112C08091A9
:1013E000A1099091A209A091A309B091A409892B08
:1013F0008A2B8B2B19F481E08093900981E08093F4
:101400008F09CC2309F456C02091A9093091AA096B
:101410004091AB095091AC09C701B6010E94C726A3
:1014200087FF14C02091A9093091AA094091AB0906
:101430005091AC0960919409709195098091960939
:10144000909197090E94E52787FF22C02091A90962
:101450003091AA094091AB095091AC09C701B6017E
:101460000E94C726811126C02091A9093091AA099E
:101470004091AB095091AC09609194097091950924
:1014800080919609909197090E94E527181694F487
:101490008091A1099091A209A091A309B091A409FA
:1014A000892B8A2B8B2B19F481E08093900981E0A2
:1014B00080938F0981E090918F09911180E0809352
:1014C0009309C0929409D0929509E0929609F092FE
:1014D0009709012B09F067C18091980990919909AA
:1014E000892BD9F410929E0910928F0980910802DD
:1014F000882379F082E090E090939909809398098D
:101500001092080220919C0930919D0981E0232BC3
:10151000E9F080E01BC081E00ACF109208028091C0
:101520009E09882349F0109290091092990910920F
:10153000980910929E09EDCF80919C0990919D0988
:10154000892BE1F080918F0910928F0920919809E1
:10155000309199092230310509F45EC088F42115D3
:10156000310509F448C02130310509F4F3C0109267
:10157000900910928F0910929E0938C081E0E6CF41
:101580002330310509F4B1C02430310581F7409191
:101590008B0950918C0960918D0970918E094115CC
:1015A00051056105710561F04150510961097109E9
:1015B00040938B0950938C0960938D0970938E0929
:1015C00040918B0950918C0960918D0970918E0921
:1015D000452B462B472BD9F420919A0930919B0932
:1015E0002130310509F046C01092900910929909F6
:1015F000109298090CC080910802882341F082E083
:1016000090E09093990980939809109208021092A3
:10161000890980919009CEC08823C9F38091A109DE
:101620009091A209A091A309B091A40918161906D6
:101630001A061B060CF07DC080919C0990919D09B3
:10164000019709F076C08091A1099091A209A0911B
:10165000A309B091A40980938B0990938C09A0935E
:101660008D09B0938E0983E090E09093990980935F
:101670009809CDCF4091A5095091A6096091A7097D
:101680007091A809452B462B472BA9F01092900981
:101690008091A5099091A609A091A709B091A809E8
:1016A00080938B0990938C09A0938D09B0938E0938
:1016B00081E090E0DACF882399F08091090290913F
:1016C0000A02A0910B02B0910C0280938B099093B7
:1016D0008C09A0938D09B0938E0984E090E0C5CF6A
:1016E0001092900982E090E0C0CF80918B09909198
:1016F0008C09A0918D09B0918E090097A105B105C3
:1017000059F00197A109B10980938B0990938C0935
:10171000A0938D09B0938E0980918B0990918C09CB
:10172000A0918D09B0918E09892B8A2B8B2B09F002
:101730006ECF8091090290910A02A0910B02B091A4
:101740000C02892B8A2B8B2B09F44ECF81E08093DE
:101750009009B3CF40918B0950918C0960918D090C
:1017600070918E09411551056105710561F0415077
:1017700051096109710940938B0950938C09609359
:101780008D0970938E0940918B0950918C0960915D
:101790008D0970918E09452B462B472B09F037CFC9
:1017A0008111C7CF9FCF80918909882309F431CF58
:1017B00080918A09CF911F910F91FF90EF90DF9058
:1017C000CF9008951092940910929509109296095D
:1017D0001092970910929309109299091092980902
:1017E00010929209109291091092B3091092B209C5
:1017F0001092900910928F0910928B0910928C0907
:1018000010928D0910928E0910928A0910928909FE
:101810001092AE091092AF091092B0091092B1095E
:101820001092AD091092A9091092AA091092AB0961
:101830001092AC0988EE93E0A0E0B0E0809309023A
:1018400090930A02A0930B02B0930C021092A50988
:101850001092A6091092A7091092A8091092A10946
:101860001092A2091092A3091092A4091092A00943
:1018700010929F0981E08093080210929E091092B5
:101880009D0910929C0910929B0910929A0990E070
:1018900080E0089580919C0990919D09892B19F50C
:1018A00080910802882351F080919E09811106C021
:1018B00081E080938A0980938909089520919E0987
:1018C0003091080281E090E0332311F090E080E055
:1018D00030E082239323892B21F010928A0981E042
:1018E000EACF10928909089582E090E0FA0191838D
:1018F00080838FEF9FEF0895CF93DF93EA010097E6
:1019000011F00E940D1F1982188290E080E0DF9193
:10191000CF910895DB01009719F48FEF8C93089510
:101920002EEF2C93FC013F96EF30F10508F034C008
:101930008827E256F34F8F4F0C94702DCA0CC80CB9
:10194000C60CC40CC20CBE0CC00CBC0CBA0CB80C3F
:10195000B50CB10CAD0CB30CCC0C80E311968C9390
:10196000089589E2FBCF82E2F9CF11961C92089587
:1019700083E2F4CF81E2F2CF81E1F0CF87E2EECFD4
:101980008AE2ECCF80E1EACF84E2E8CF88E2E6CFDA
:1019900086E2E4CF81E3E2CF80E2E0CF8091C0092C
:1019A0009091C10908959093C1098093C009089549
:1019B0008091BF0908959091BF09892B8093BF0939
:1019C0000895982F90958091BF0989238093BF092E
:1019D00008958091BE0908958091BC099091BD0938
:1019E00008956115710559F0FB0130E020E070E0C9
:1019F00060E02417350719F06115710511F0CB016E
:101A00000895A081B181A817B90709F4BF012F5F1C
:101A10003F4F3696EECF8091C20981111CC060D233
:101A200066D29093B5098093B4090E940B170E9467
:101A30001D179093B9098093B8090E949A1B0E94C0
:101A4000A11B9093B7098093B60981E08093C209E6
:101A500090E080E0089584EF9FEF08958F929F9229
:101A6000AF92BF92CF92DF92EF92FF920F931F93AC
:101A7000CF93DF9300D000D000D01F92CDB7DEB758
:101A80001A86198618861F821E821D821C821B825E
:101A90001A8219828091C20907EF1FEF882309F487
:101AA0009CC08E010D5F1F4F9E012B5F3F4FAE010B
:101AB000495F5F4FBE01675F7F4F90E080E00E940B
:101AC0001E1D8C01009721F00596029708F0DBC0DF
:101AD00029853A852115310509F402C1ED80FE8082
:101AE0004B815C81B701640F751F8F8198858617C4
:101AF000970708F4F5C0E20EF31ED7019C91903CC5
:101B000009F07FC04230510508F47BC011968C91DA
:101B10004091C0095091C109452B09F49CC0913FE7
:101B200008F071C02CE1290F2D3008F48BC02DE294
:101B3000290F203108F489C0903C21F48150823073
:101B400008F483C088E3890F8B3008F481C09AE8D9
:101B5000C92E9CE0D92EE4E7FCE06D817E81AE01C8
:101B60004F5F5F4F89859A8519955C01C114D10437
:101B7000A1F189809A808114910479F18B819C81F3
:101B80008815990508F487C010E000E04B815C815E
:101B900070E060E0C7010E949A2D01151105E9F47B
:101BA00049815A8169857A858D819E81680F791F67
:101BB000C501F6011995E980FA800D811E812F81FA
:101BC000388549855A856FEF7FEF81E090E00E946C
:101BD000B91C8C01892B09F056C0C8012A960FB692
:101BE000F894DEBF0FBECDBFDF91CF911F910F9153
:101BF000FF90EF90DF90CF90BF90AF909F908F902D
:101C0000089580E085CF30E020E0220F331FF901F6
:101C1000EC54F64F0190F081E02D309709F497CF06
:101C2000892F90E01995009709F491CFDC01129665
:101C3000ED91FC9113971496CD90DC90309709F0BC
:101C40008CCF1FC021E030E0E0CF22E030E0DDCFDC
:101C500023E030E0DACFD12CC12CECE7FCE09F3F51
:101C600009F07BCFE091B409F091B509309721F4E8
:101C7000C90104EF1FEF0CC08FEF90E0199500979A
:101C8000A9F604EF1FEF89859A85009709F4A5CF7F
:101C90000E940D1FA2CF0E94E81D8C0189859A85A4
:101CA0000E940D1F70E060E0C4010E94811D9887B2
:101CB0008F830E94B61C9E838D836F81788561150A
:101CC000710559F0C8010E9499209A87898706EF0B
:101CD0001FEF892B09F058CF59CF08EF1FEF56CFD0
:101CE00008EF1FEFD0CF2091C209222319F020E086
:101CF0000C94221787EF9FEF08958091C00990916F
:101D0000C10908950E94A61B0E94001BF5D0E4EBB8
:101D1000F9E088E0DF011D928A95E9F71092C20987
:101D200090E080E008950C945E1921E040E050E0DE
:101D3000BA010C94221786E090E0FA019183808327
:101D400090E080E0089547E050E069E778E049CE10
:101D5000DF92EF92FF920F931F93CF93DF938A014D
:101D6000EC01C60FD71FE090C609F090C709D980D3
:101D70000E94D01DD816190678F082E090E0F80194
:101D8000918380838EEF9FEFDF91CF911F910F9111
:101D9000FF90EF90DF900895EF2841F482E090E00B
:101DA000F8019183808384EF9FEFEECF8981809348
:101DB000C50990E00196F8019183808390E080E06E
:101DC000E3CFCF93DF93EA010E940F1A882321F01B
:101DD0000E94DD1D0E94101A82E090E099838883A2
:101DE0008BEF9FEFDF91CF910895CF93DF93EB01BE
:101DF00086E0FB0111928A95E9F78FEF8883D8DDA1
:101E00008983E7DD8A83E8DD9D838C83DF91CF9131
:101E10000895CF93DF93EA010E94121A811109C03D
:101E200082E090E09983888385EF9FEFDF91CF91E7
:101E3000089590E080E0B7DD81E090E099838883A9
:101E400090E080E0F3CF0F931F93CF93DF93EA01ED
:101E50008C01060F171F0E94121A81110BC082E01D
:101E600090E09983888385EF9FEFDF91CF911F9159
:101E70000F910895F8018181823038F082E090E07E
:101E8000998388838EEF9FEFF0CF81E090E08BDD28
:101E900088E090E09983888390E080E0E6CFCF935C
:101EA000DF930097D1F4EB01FB01329686E0DF016E
:101EB0001D928A95E9F78FEF888385E089831A82DE
:101EC0000E94D01D8B830E94CF1D9D838C8381E057
:101ED0008E838F83DF91CF910895DF91CF911ACDBB
:101EE00083EA9EE09093C4098093C309089580918A
:101EF000C3099091C40908951092C4091092C309AE
:101F000008958091C6099091C7090895411105C0AF
:101F1000611571058105910561F06093C6097093A3
:101F2000C7098093C8099093C9094093CA0981E001
:101F3000089580E00895FF920F931F93CF93DF934E
:101F40008A01EC01C60FD71FF9800E94D01DF81638
:101F5000190668F082E090E0F801918380838EEFAB
:101F60009FEFDF91CF911F910F91FF9008956C81AA
:101F70007D818E819F814B81C9DF811108C082E004
:101F800090E0F8019183808384EF9FEFEACF89810D
:101F90008093C50990E00196F8019183808390E0D9
:101FA00080E0DFCFCF93DF93EA01FC01E60FF71F5C
:101FB00064817581868197814381A8DF811109C081
:101FC00082E090E09983888384EF9FEFDF91CF9147
:101FD000089581E090E09983888390E080E0F6CFD7
:101FE000E6ECF9E04081518162817381480F511D17
:101FF000611D711D40835183628373830895CF9364
:10200000C091C5094C2F50E06091C6097091C70975
:1020100001960E94912D8C2FE3DF1092C509CF917C
:102020000895009799F48091C6099091C7092FEF00
:10203000FB012083892B59F02091C50930E02F5FE7
:102040003F4F2417350719F4CB01D9CF63CC08953E
:10205000009799F48091C6099091C7092FEFFB0171
:102060002083892B59F02091C50930E02F5F3F4F25
:102070002417350719F4CB01C2CF4CCC089523E1C6
:10208000AC01249FC001259F900D1124E091CF0940
:10209000F091D009E80FF91F2381348122503109D2
:1020A00081E02230310508F080E008950F931F93FE
:1020B000CF93DF930091D1091091D209D0E0C0E015
:1020C00080E00C171D0749F491E0811190E0892F01
:1020D000DF91CF911F910F9108958111F5CFCE011E
:1020E000CEDF2196EECFA091CF09B091D009109705
:1020F00029F12091D1093091D20982179307F0F488
:1021000053E1589F9001599F300D1124A20FB31F26
:10211000ED91FC911197309789F012968C91681788
:1021200068F48DE0689FE00DF11D1124808191819C
:10213000892B21F081E09281491708F080E0089511
:102140009C0143E1429FC001439F900D1124E09107
:10215000CF09F091D009E80FF91F8385823091F4FF
:1021600081E090E06581768140910D0250910E02F0
:102170006417750711F490E080E0892B19F081E075
:10218000232B09F080E00895FC01A081B1818DE04E
:10219000689FA00DB11D112413964D915C9185850A
:1021A0009685489F9001499F300D589F300D11240E
:1021B000C9010196611103C0478144FD0496089549
:1021C000EF92FF920F931F93CF93DF93EA01FC01ED
:1021D000E60FF71F02811381E480F5804F2D6E2DED
:1021E000C80181DF81110DC082E090E0998388836E
:1021F0008EEF9FEFDF91CF911F910F91FF90EF90A6
:102200000895C8013CDF882339F082E090E099838B
:10221000888388EF9FEFEECF109314020093130290
:10222000E0921502F092160281E090E09983888393
:1022300090E080E0DFCFCF92DF92EF92FF920F939A
:102240001F93CF93DF937A01EC01C60FD71FC09085
:102250001302D09014020091150210911602412F22
:10226000602FC60140DF811110C082E090E0F701CD
:10227000918380838AEF9FEFDF91CF911F910F9120
:10228000FF90EF90DF90CF900895C601F8DE88238D
:1022900041F082E090E0F7019183808388EF9FEF27
:1022A000EBCF4C815D816E817F819A8189818F3FE7
:1022B00041F082E090E0F701918380838EEF9FEF01
:1022C000DBCFE3E1EC9D9001ED9D300D1124E09119
:1022D000CF09F091D009E20FF31F0190F081E02DBA
:1022E0002DE0029FE00DF11D11240190F081E02D01
:1022F00027E0129FE00DF11D1124808391838B81D3
:10230000828343835483658376831F5F1093160211
:1023100081E090E0F7019183808390E080E0ACCF92
:10232000EF92FF920F931F93CF93DF937A018C016B
:10233000060F171FC091CF09D091D009209781F0C7
:1023400021E030E0F801828193814091D1095091E0
:10235000D2098417950710F030E020E0232B71F4A8
:1023600082E090E0F701918380838EEF9FEFDF9111
:10237000CF911F910F91FF90EF90089543E1489FF7
:102380009001499F300D1124C20FD31F78DE88239E
:1023900041F082E090E0F7019183808388EF9FEF26
:1023A000E6CFF8012481358120383105C8F68781D0
:1023B0008111D6CF4181842F90E08F7E009741F02C
:1023C00082E090E0F7019183808386EF9FEFCFCF8B
:1023D0004F833E832D83268128871986223010F46F
:1023E00021E0288721E030E0F70131832083BFCF4F
:1023F00088E090E0FA019183808390E080E0089586
:10240000FB018FEF808381E181838FEF9FEF9383C7
:10241000828380E890E095838483168217820895F2
:10242000FB018FEF808391E0918382839383848388
:1024300084E3858381E090E0978386830895DF922B
:10244000EF92FF920F931F93CF93DF93EA01FC016A
:10245000E60FF71F8181813071F082E090E099836F
:1024600088838FEF9FEFDF91CF911F910F91FF90A6
:10247000EF90DF90089582819381D4802581E6805A
:10248000F7800091CF091091D0090115110539F499
:1024900082E090E0998388838CEF9FEFE4CF4091B6
:1024A000D1095091D2098417950738F082E090E065
:1024B000998388838EEF9FEFD6CF892B39F082E006
:1024C00090E09983888386EF9FEFCDCF8D2D8D7F10
:1024D000B1F72130A1F781E0D11006C091E0E916F3
:1024E000F10431F080E004C0E2E0EE16F104D0F334
:1024F000882329F390E080E0C2DD882339F082E070
:1025000090E09983888388EF9FEFADCFF801D38661
:1025100081E08487F686E586108A178681E090E060
:102520009983888390E080E09ECF4CE050E063EA9E
:1025300078E057CA8F929F92BF92CF92DF92EF922C
:10254000FF920F931F93CF93DF93EA01FC01E60FF5
:10255000F71F828193810481B580E091CF09F091CA
:10256000D009309791F482E090E0998388838CEFD2
:102570009FEFDF91CF911F910F91FF90EF90DF9030
:10258000CF90BF909F908F9008952091D109309166
:10259000D2098217930738F082E090E0998388830C
:1025A0008EEF9FEFE6CF23E1289F6001299FD00C9B
:1025B0001124EC0DFD1DE080F180E114F10499F28D
:1025C0008281081748F78DE0089F80011124E00EF2
:1025D000F11EF70180819181892B29F6BB20E1F260
:1025E000F7E0BF9E40011124C4010E94D41EF701F0
:1025F00091838083E091CF09F091D009EC0DFD1D0E
:102600000190F081E02DE00FF11F80819181009712
:1026100039F482E090E0998388838DEF9FEFA9CF12
:10262000A40170E060E00E949A2D8091CF09909102
:10263000D009C80ED91EF60180819181080F191F9B
:10264000F801B28281E090E09983888390E080E095
:1026500090CFAF92BF92CF92DF92FF920F931F93D2
:10266000CF93DF93EA01FC01E60FF71F828193818C
:10267000F4800091CF091091D0090115110581F462
:1026800082E090E0998388838CEF9FEFDF91CF9178
:102690001F910F91FF90DF90CF90BF90AF90089562
:1026A0002091D1093091D2098217930738F082E046
:1026B00090E0998388838EEF9FEFE8CF2FEF2F0D67
:1026C0002C3FA8F723E1289F6001299FD00C1124FB
:1026D0000C0D1D1DF80180819181892B89F6FDE08B
:1026E000FF9E50011124C5010E94D41EF801918360
:1026F0008083E091CF09F091D009EC0DFD1D808120
:102700009181009739F482E090E0998388838DEF7E
:102710009FEFBCCFA50170E060E00E949A2DE09190
:10272000CF09F091D009EC0DFD1DF28281E090E01F
:102730009983888390E080E0A9CFCF92DF92EF92D7
:10274000FF920F931F93CF93DF93860F971FFC0188
:10275000028113818091CF099091D009892B81F05A
:1027600082E090E0FA01918380838CEF9FEFDF910C
:10277000CF911F910F91FF90EF90DF90CF90089530
:10278000C801B0E0A0E00197A109B1098F3F9F4FB8
:10279000A105B10540F082E090E0FA0191838083C9
:1027A0008EEF9FEFE4CF7A0183E1809F6001819FEC
:1027B000D00C1124C6010E94D41EEC01009741F4F4
:1027C00082E090E0F701918380838DEF9FEFCFCF80
:1027D000A60170E060E00E949A2DD093D009C093CA
:1027E000CF091093D2090093D10990E080E02FEF38
:1027F0003FEF41E061E070E08017910741F481E034
:1028000090E0F7019183808390E080E0B0CF3A8B35
:10281000298B1B864C877E876D87188A1F860196B9
:102820006396EACFEF92FF921F93CF93DF93EC0171
:1028300010E0F12CE12C6A811617B0F083E0689F5C
:10284000B0011124AE014F5E5F4FC7010E94391FD6
:10285000009721F02FEF3FEF3A8B298BDF91CF913B
:102860001F91FF90EF900895612FCE018DDC61E004
:1028700070E00E94811DE816F90608F47C011F5FD4
:10288000DACFF8942091CD093091CE0981E021155D
:10289000310509F080E0232B09F0789408952F92F8
:1028A0003F924F925F926F927F928F929F92AF92E0
:1028B000BF92CF92DF92EF92FF920F931F93CF932D
:1028C000DF933C01660E771EF301828193814C01F8
:1028D000B12CA12CC091CF09D091D009209769F0DB
:1028E00021E030E06091D1097091D20986179707F5
:1028F00010F030E020E0232BD1F482E090E0FA01E8
:10290000918380838EEF9FEFDF91CF911F910F9185
:10291000FF90EF90DF90CF90BF90AF909F908F90FF
:102920007F906F905F904F903F902F90089580928E
:10293000170290921802A0921902B0921A0263E153
:10294000689F9001699F300D1124C20FD31FF301BE
:102950008181833040F082E090E0FA0191838083AE
:1029600086EF9FEFD1CF2A012B813C81232BF1F4FD
:10297000288139819F8191FF2EC0232B09F46FC0DC
:102980002091D4099A81422F490F5527551FBA012A
:1029900041E050E06138710514F050E040E0452B13
:1029A00009F45DC02A87920F9093D4098150823038
:1029B00008F481C066DF882309F4D8C0F30181815F
:1029C000813009F48DC008F47BC0823009F4C6C0A0
:1029D00090E080E0ADC0232B09F441C02091D309E1
:1029E0009A81E22FE90FFF27FF1F41E050E0ED3F02
:1029F000F10514F050E040E0452B89F12A87920F51
:102A00009093D309D3CFA081B181A20FB31F1196A8
:102A10006C91060F111D0196295F3F4F8417950792
:102A200094F38D859E85089F1001099F300C189F97
:102A3000300C1124C114D104D1F48F8184FF17C04C
:102A40000E94CF1DF5E02F0E311C21E08215930569
:102A500008F420E0A701435F5F4F21110EC082E020
:102A600090E0F2019183808387EF9FEF4DCF0E942A
:102A7000CF1D2FEF221A320AE8CF88819981E80E04
:102A8000F91EF70114830383FFEFCF1ADF0A7A01DF
:102A90008A818C151D0409F00CF48CCFE881F98132
:102AA000EE0DFF1D428150E030E020E010E000E03C
:102AB00090E080E0B3CFF12CE12CD12CC12CE8CFF9
:102AC00081E090E09C838B83F1DA882309F480CF46
:102AD00081E090E00E94D30C80E40E94E10C78CF6A
:102AE00089899A89019661F083E090E09C838B83C9
:102AF00082E090E00E94D30C80E40E94DB0C68CF5F
:102B00008D819E8120910D0230910E0282179307D4
:102B1000D1F46091110270911202AE014F5E5F4FCD
:102B200080910F02909110020E9458200097E1F2CC
:102B3000789422E030E0F20131832083892B99F0F0
:102B40008DEF9FEFE1CE89288A288B2869F6892BA3
:102B500059F6CE0167DE188A1F86E8CF82E090E042
:102B60009C838B8335CF90E080E0CECE82E090E0F6
:102B7000F2019183808385EF9FEFC6CE8F929F9263
:102B8000AF92BF92CF92DF92EF92FF920F931F937B
:102B9000CF93DF93EA018C01060F171FF8018181A3
:102BA000833098F082E090E09983888386EF9FEFEE
:102BB000DF91CF911F910F91FF90EF90DF90CF9019
:102BC000BF90AF909F908F9008958091CF09909182
:102BD000D009892B61F081E090E02091D1093091FA
:102BE000D209232B11F490E080E0892B39F482E0A4
:102BF00090E0998388838EEF9FEFDACF42DE8823BF
:102C000009F4DFC0F8018181813009F495C0E8F052
:102C1000823099F42091D1093091D209E091CF0905
:102C2000F091D00990E080E041E050E028173907AA
:102C300009F0BDC03BDA811117C0789481E090E0C3
:102C40009983888390E080E0B3CF2091D1093091BF
:102C5000D209E091CF09F091D00990E080E041E005
:102C600050E02817390741F481E090E00E94D30C2E
:102C700080E40E94E10CE1CF63817481672B11F045
:102C80005483438301967396ECCFE091CF09F09182
:102C9000D009E00FF11F2381348122303105D9F4AE
:102CA000218932892F3F3F4FB1F4258136814091F0
:102CB0000D0250910E022417350761F5AF014F5EEA
:102CC0005F4F609111027091120280910F029091FA
:102CD00010020E945820EFEFCE1ADE0AEE0AFE0A1A
:102CE0000D5E1F4F4091D1095091D20970E060E014
:102CF000C416D506E606F7063CF5009731F278943F
:102D0000892B09F49BCF82E090E0998388838DEF33
:102D10009FEF4ECFC114D104E104F104E1F6232B5F
:102D2000D1F6CF017FDDE091CF09F091D009E00F1E
:102D3000F11F108A1786CFCF10E000E090E080E00E
:102D4000C12CD12C7601CECF0097C9F610E000E05F
:102D5000812C912C540183E0E82EF12C1AC0E091D3
:102D6000CF09F091D009E00FF11F83819481029780
:102D700049F4F482E38282E090E00E94D30C80E484
:102D80000E94DB0CFFEF8F1A9F0AAF0ABF0A0D5E8D
:102D90001F4F8091D1099091D209B0E0A0E0881630
:102DA0009906AA06BB06DCF290E080E0A8CF63811A
:102DB00074816230710511F45483438301967396D4
:102DC00035CF82E090E09983888385EF9FEFF0CE46
:102DD0000097B9F48FEFFB018083209117023091A7
:102DE000180243E1429FC001439F900D1124E091DE
:102DF000CF09F091D009E80FF91F8285FB0181838B
:102E000008950C948A0C88E090E0FA019183808305
:102E100090E080E008951092CE091092CD09EFEC79
:102E2000F9E086E0DF011D928A95E9F785E992E1F4
:102E30009093CC098093CB0908958091CB09909110
:102E4000CC0908952F923F924F925F926F927F929A
:102E50008F929F92AF92BF92CF92DF92EF92FF92AA
:102E60000F931F93CF93DF93CDB7DEB72F970FB696
:102E7000F894DEBF0FBECDBFF894E091CD09F0917C
:102E8000CE093196F093CE09E093CD097894409025
:102E9000CF095090D0094114510409F40CC2E091BB
:102EA000D109F091D209EF2B09F405C22D8749878A
:102EB0005A876B877C8798878F831201B12CA12C4E
:102EC00010E000E08091D1099091D209A816B906CE
:102ED00018F40115110529F1F8948091CD0990910C
:102EE000CE0901979093CE098093CD097894C801BB
:102EF0002F960FB6F894DEBF0FBECDBFDF91CF91F6
:102F00001F910F91FF90EF90DF90CF90BF90AF9007
:102F10009F908F907F906F905F904F903F902F90F9
:102F200008957101E418F508D10117968C9117974F
:102F300081FD54C013968D919C911497039709F0CD
:102F40004DC015968D919C91EF81F8858E179F0746
:102F500009F044C0B50190E080E07FD48A832091DD
:102F6000CF093091D0093D832C833D85332309F46B
:102F70004CC04C815D81452B09F49AC18091D109E7
:102F80009091D209A816B90608F092C1C501D8D807
:102F90008823E9F06C817D816E0D7F1D7D836C83BC
:102FA000DB011F968D919C91892B89F0D12CC12C2E
:102FB000F12CE12CAC81BD8112968C9112978E156B
:102FC0001F0409F094F450961C921E921F972A81B8
:102FD000222321F0B50190E080E041D43FEFA31A15
:102FE000B30A43E1240E311C6DCFAC81BD81ED915C
:102FF000FC91EC0DFD1D858196810FD7BFEFEB1A7B
:10300000FB0AEDE0CE0ED11CD5CFEC81FD813097CF
:1030100009F44EC18091D1099091D209A816B90640
:1030200008F046C1EE0DFF1DFF87EE87C50188D869
:103030008B83882339F1AE85BF851F968D919C9136
:103040005097019621E01D964D915C91841795074C
:1030500009F020E02E831982712C10E000E0AE858B
:10306000BF8512968C91781608F45DC0EE85FF85B9
:10307000878590890196658576850E943A2D908B8B
:103080008787A5CFB1E0BE83E6CF992493946BC028
:103090008BD6F6019683858382C0D601ED90FC9095
:1030A000B7E06B9EE00CF11C1124F7016381748181
:1030B00080818F3F61F121E030E002C0220F331F99
:1030C0008A95E2F7C901092E000CAA0BBB0BFB0184
:1030D000408151816281738184239523A623B72384
:1030E00021E0892B8A2B8B2B09F420E0D4012C932F
:1030F000D70111968C91F60123853485820F932F89
:10310000911D880E991E1486138663949BC041817D
:1031100050E0C4010E94912DEBCF998206EF1FEF82
:10312000C5C01982C3C0F981F111A0CFEDE07E9E28
:1031300070011124AE85BF85CD90DC90CE0CDF1CD4
:1031400015D49D838C83BB81BB2309F49ECF81E082
:10315000EE85FF8527853089232B09F080E0982EA6
:10316000882309F458C0672D8E859F850DD8D60118
:1031700018969C938E93179761E070E0C2D4EE8509
:10318000FF85218932892F3F320709F481CFBC01A5
:10319000C901CFD7D60116969C938E931597D60169
:1031A00015968D919C911697009709F4B6CFEC81F6
:1031B000FD818E0F9F1F1A969C938E931997AE8553
:1031C000BF85ED91FC911197EE0EFF1EF701218551
:1031D0003285148613861A968C91870DD9018D93AA
:1031E000711016C0EE85FF85878184FF11C0498567
:1031F0005A856B857C85F90141835283638374838F
:10320000F701838594850496A80FB91F1486138649
:10321000F701B287A187D60115968D919C911697DB
:10322000892B09F443C0EE85FF8525813681809185
:103230000D0290910E022817390779F019968D909A
:103240009C90612CD60112968C911297681608F406
:1032500024CF1A969C928E921997BE81BB2309F4B3
:1032600060CF61E070E0F601878190854AD4D60195
:103270001796ED90FC90189715964D915C91E1E0B2
:10328000F0E0BA81BB2311F0F0E0E0E00C811D8199
:103290009C01B501882799278E1B9F0B6AD38C014F
:1032A000892B21F0F60185819681B7D57394D7CE0D
:1032B0000FEF1FEF8CCE10E000E00ECE2F923F926A
:1032C0004F925F926F927F928F929F92AF92BF9236
:1032D000CF92DF92EF92FF920F931F93CF93DF93E2
:1032E0008091CF099091D00910E000E0892BA9F0DE
:1032F000C8DA0AEF1FEF882381F02090D1093090BF
:10330000D209C091CF09D091D009D12CC12C10E0A5
:1033100000E02C143D04A9F47894C801DF91CF910A
:103320001F910F91FF90EF90DF90CF90BF90AF90E3
:103330009F908F907F906F905F904F903F902F90D5
:103340000895C6010E94A010882309F18B819C81F9
:103350000397E9F48F859889892BC9F0B60190E02D
:1033600080E07BD221E030E0882311F030E020E0E3
:1033700044245524421A530AB12CA12C912C812C9F
:103380008A818815190409F038F4188A1F864FEFCE
:10339000C41AD40A6396BDCFE881F981EA0DFB1DFA
:1033A00085819681892BA1F161E070E0878190850C
:1033B000A8D33C01DBD28C01E881F981EA0DFB1D29
:1033C0008185928525813681200F311FAC01421BFA
:1033D000530B9A0147815085421B530B70E060E00C
:1033E0000E949A2DE881F981EA0DFB1DE780F084A7
:1033F000458156819301B601C201BBD28C01892B54
:1034000039F0E881F981EA0DFB1D8581968105D5AA
:103410005FEF851A950A8DE0A80EB11CB1CF31CAB5
:10342000789408952F923F924F925F926F927F927D
:103430009F92AF92BF92CF92DF92EF92FF920F9343
:103440001F93CF93DF9300D000D0CDB7DEB70091AC
:10345000CF091091D009992493940115110509F40D
:103460003EC0A090D109B090D2090BDA982E8823E3
:10347000B1F11092D0091092CF091092D209109296
:10348000D1091092D3091092D4098FEF9FEFDC017C
:103490008093170290931802A0931902B0931A0216
:1034A00078947FD31E830D83C12CD12C7601C50166
:1034B000B0E0A0E089839A83AB83BC8322242A9462
:1034C000322C89819A81AB81BC81C816D906EA0663
:1034D000FB06F4F0C801A1D480E40E94E10C892D20
:1034E00026960FB6F894DEBF0FBECDBFDF91CF9109
:1034F0001F910F91FF90EF90DF90CF90BF90AF9012
:103500009F907F906F905F904F903F902F90089585
:10351000AD81BE8115968D919C91169720910D02DB
:1035200030910E0282179307D1F451968D919C91A0
:10353000EED5ED81FE8180819181B12CA12C412CB1
:10354000512C3201892B89F5BFEFCB1ADB0AEB0A2C
:10355000FB0AED81FE817396FE83ED83B2CFC11429
:10356000D104E104F10429F7892B19F7ED81FE81DB
:10357000818992898F3F980709F029D5AD81BE8155
:1035800052963C922E925197D4CF8A0D9B1DDC010E
:103590008D919C91009709F040D4BFEF4B1A5B0AC4
:1035A0006B0A7B0AEDE0AE0EB11CAD81BE818D9140
:1035B0009C91119712964C9150E070E060E0441697
:1035C0005506660677060CF328D4BECFCF93DF935B
:1035D000EA0128DF811109C082E090E099838883A5
:1035E00085EF9FEFDF91CF91089581E090E00E94F9
:1035F000D30C81E090E09983888390E080E0F2CF63
:1036000011DF1092CC091092CB09089542E050E0EE
:103610006BEE78E00C94F10CFF920F931F93CF9315
:10362000DF938A01EC01C60FD71FF980B9D2089742
:10363000F816190671F068F082E090E0F8019183C5
:1036400080838EEF9FEFDF91CF911F910F91FF90BD
:1036500008956C817D818E819F814B810E94860FB0
:10366000811108C082E090E0F8019183808384EFAB
:103670009FEFE9CFF9800E94810F4F2D50E0BE01EE
:10368000685F7F4F0E94912D89810E94F00F81E039
:1036900090E0F8019183808390E080E0D4CFDF92C6
:1036A000EF92FF920F931F93CF93DF938A01EC0168
:1036B000C60FD71F0E94810F7C01D98071D2DD20F7
:1036C00059F0029721E030E0D816190619F010F0F1
:1036D00030E020E0232B79F482E090E0F801918340
:1036E00080838EEF9FEFDF91CF911F910F91FF901D
:1036F000EF90DF900895EF2841F482E090E0F80128
:103700009183808384EF9FEFEECFF9800E94810F39
:103710004F2D50E0BE016E5F7F4F0E94912D898139
:103720000E94F00F81E090E0F8019183808390E0A7
:1037300080E0D9CF86E09BE19093D6098093D509AC
:1037400008958091D5099091D60908950895FC01B6
:1037500011821082938382830895DB011D921C9253
:10376000DC011296ED91FC9113977183608313969F
:103770007C936E9312970895FC0180819181DB0107
:103780008D939C93A081B181109741F08D919C9174
:1037900091838083892B11F4F383E2830895FC01E4
:1037A00080819181DB018D939C93892B11F473832C
:1037B0006283718360830895FC0111821082938378
:1037C00082830895CF93DF931F921F92CDB7DEB708
:1037D0001A821982F894BE016F5F7F4F8CED99E0D9
:1037E000CBDF89819A81009709F017D389819A816B
:1037F000892B89F7BE016F5F7F4F80EE99E0BCDFB8
:1038000089819A81009709F008D389819A81892B4F
:1038100089F778940F900F90DF91CF910895CF930F
:10382000DF931F921F92CDB7DEB71A821982F894E8
:10383000BE016F5F7F4F88ED99E09EDF89819A819D
:10384000009709F0EAD289819A81892B89F77894C7
:103850000F900F90DF91CF91089581E0089590E04F
:1038600080E00895EF92FF920F931F93CF93DF9321
:103870001F921F92CDB7DEB71A8219828091D709A5
:1038800007EF1FEF8823A1F1F894BE016F5F7F4F10
:1038900080EE99E071DF789489819A81EE24E39437
:1038A000F12C892B51F4F894BE016F5F7F4F8CEDA2
:1038B00099E062DF7894F12CE12C89819A810EEFF6
:1038C0001FEF0097A9F0FC014281538164E070E092
:1038D00074D68C01892B61F0F89469817A81C701D3
:1038E000880F991F880F991F8452964F58DF78943C
:1038F000C8010F900F90DF91CF911F910F91FF9012
:10390000EF9008950F931F93CF93DF9300D01F92F2
:10391000CDB7DEB71C821B821A8219828091D7092B
:1039200007EF1FEF8823C1F0AE014D5F5F4F64E0EA
:1039300070E0CE010196B4D68C01892B69F4E9813F
:10394000FA818B819C8193838283F89469817A8147
:1039500088ED99E002DF7894C8010F900F900F90E6
:103960000F90DF91CF911F910F910895B9D70496D1
:1039700008958F929F92AF92BF92CF92DF92EF9273
:10398000FF920F931F93CF93DF931F921F92CDB798
:10399000DEB71A821982BC016F5F7F4F63307105F9
:1039A00098F0AA24AA94BA2CC5010F900F90DF9129
:1039B000CF911F910F91FF90EF90DF90CF90BF902C
:1039C000AF909F908F9008954115510551F3480194
:1039D00059018A016C01CADF8815990511F7E114B4
:1039E000F104F9F28E0D9F1DA816B906D0F2809150
:1039F000D7098823F1F0F894B50164507109970153
:103A0000AE014F5F5F4FC8010496DFD65C01892B82
:103A100071F489819A81F80193838283C601880FAA
:103A2000991F880F991FB8018452964F96DE78949B
:103A3000BBCF87EFA82EBB24BA94B6CFAF92BF926C
:103A4000CF92DF92EF92FF920F931F93CF93DF936A
:103A50001F921F92CDB7DEB71A821982892B09F007
:103A600047C06115710509F443C04115510509F4BA
:103A70003FC02115310509F43BC001151105C1F105
:103A80008091D7098823B9F179016A015B01F89423
:103A9000BE016F5F7F4F88ED99E06EDE789489817B
:103AA0009A81009759F1DC0112966D917C91A801E1
:103AB0000496A4D68C01E981FA81D501ED93FC939B
:103AC000828193810496F601918380834FDFD70131
:103AD0008D939C93C8010F900F90DF91CF911F9110
:103AE0000F91FF90EF90DF90CF90BF90AF9008952F
:103AF0000FEF1FEFEFCF07EF1FEFECCF0EEF1FEF32
:103B0000E9CFCF93DF93EC01672B71F4F2D68C17DA
:103B10009D0760F0E5D62496C80FD91FE4D68C0F18
:103B20009D1FDF91CF910895E1D6F1CF90E080E025
:103B3000F8CF0F931F93CF93DF932091D7092111D3
:103B40002BC08B01EC018CED99E001DE80EE99E059
:103B5000FEDD88ED99E0FBDD97D00097C1F4C9D672
:103B600070E060E0CEDF4BE152E062E070E081D1D6
:103B7000009769F480911B0290911C02CCD6B80189
:103B8000CE0101D5009719F421E02093D709DF91E8
:103B9000CF911F910F91089584EF9FEFF8CFA6C6A4
:103BA000A8C6CF93DF93A8D6EC01892B11F40ADEC7
:103BB00036DECE01DF91CF910895CF93DF939CD66F
:103BC000EC01892B09F4FEDDCE01DF91CF91089540
:103BD00080911B0290911C020895CF93DF938091F6
:103BE000D709D0E0C0E08823D1F09AD6EC01892B28
:103BF000B1F4E8DD14DE80911B0290911C02E7D144
:103C0000E8D2EC01892B59F48CED99E0D5DD80EEFA
:103C100099E0D2DD88ED99E0CFDD1092D709CE0191
:103C2000DF91CF910895EF92FF920F931F93CF935F
:103C3000DF93EC017A018B010F5F1F4F0E9DA001F6
:103C40000F9D500D1E9D500D112470E060E00E94EC
:103C50009A2D90E080E0F0E0E0E02FEFE816F90622
:103C600039F4DF91CF911F910F91FF90EF9008955C
:103C70001A8219822883309711F0D283C18301966A
:103C8000FE01C00FD11FEACFCF92DF92EF92FF92D9
:103C90000F931F93CF93DF9301E31BE00C7F43E06F
:103CA00050E06DE172E083E292E01AD48DE1E82EFB
:103CB00082E0F82E93E2C92E92E0D92EC0EBDBE031
:103CC000D7014D915D917D01F601619171916F0177
:103CD000198308835D834C835B834A837F836E8370
:103CE0009B012F5F3F4F249FC001259F900D349F64
:103CF000900D1124998788870115110511F0C801CD
:103D000092DF88859985080F191F2A96F3E2EF162E
:103D1000F2E0FF06A9F6E6EEF9E088E491E0DF01C3
:103D20009C011D9221503040E1F71092E50910925C
:103D3000E4091092CF0B1092CE0B1092D30B10927D
:103D4000D20B1092D10B1092D00B1092D50B109277
:103D5000D40B1092D70B1092D60B1092D90B109255
:103D6000D80B1092DD0B1092DC0B1092DB0B109233
:103D7000DA0B1092DF0B1092DE0B1092E10B109217
:103D8000E00B1092AD0B1092AC0B1092AF0B109297
:103D9000AE0B90E080E0DF91CF911F910F91FF90EB
:103DA000EF90DF90CF9008950097F1F0F894A3E2A0
:103DB000B2E0E0EBFBE030E020E04D915D91481790
:103DC0005907A8F0428153814115510581F08AE0DD
:103DD000829FF001839FF00D1124E055F44F808104
:103DE0009181009759F4789490E080E008952F5FD6
:103DF0003F4F3A962330310501F7F5CFDC0111969C
:103E00006D917C917183608341505109538342834A
:103E1000FC012193CF0178940895009749F1DC01CA
:103E20008E91853041F4E091AE0BF091AF0B30975D
:103E3000F9F0CD0119948530D8F4282F30E0F894AA
:103E40008FEF8C938AE0829FF001839FF00D112405
:103E5000E055F44F8081918112969C938E93119737
:103E6000B183A08382819381019693838283789426
:103E70000895CF92DF92EF92FF920F931F93CF930B
:103E8000DF939C0189EE99E08C7F4115510509F47F
:103E90009BC02115310509F497C06115710509F41E
:103EA00093C07A01AB01B9016D5F7F4F6C7F9B01BD
:103EB0002F5F3F4F249F8001259F100D349F100DD1
:103EC0001124F8942091CE0B3091CF0B232B59F471
:103ED0002091D60B3091D70B2115310569F12017B0
:103EE000310708F058C02091D80B3091D90B232B03
:103EF00091F42091D60B3091D70B820F931F209114
:103F0000E00B3091E10B2115310509F441C0201778
:103F1000310708F056C07894CFEFDFEF86EF9FEFC0
:103F2000F701D183C083DF91CF911F910F91FF9053
:103F3000EF90DF90CF900895C3E0D0E0C090E40907
:103F4000D090E50925E431E02C193D09201731070F
:103F500010F32AE02C9FF0012D9FF00D1124E05565
:103F6000F44F9183808355834483538342837783C3
:103F7000668311870087009709F055DE0C0D1D1D23
:103F80001093E5090093E409789490E080E0C8CFAD
:103F9000C4E0D0E0D3CFC3E0D0E02AE02C9FF00112
:103FA0002D9FF00D1124E055F44F918380835583AC
:103FB00044835383428377836683009729F333DEF8
:103FC000E3CFC4E0D0E0E9CF8FEF9FEFACCF9C010F
:103FD0000397029708F069C0F89484E09AE0482FAC
:103FE00050E0241735070CF44DC091E08AE0829F21
:103FF000F001839FF00D1124E055F44F11821082DF
:104000001582148213821282178216829923B1F1CB
:104010008091CE0B9091CF0B892BA9F42091D60BD8
:104020003091D70B2115310571F08091E409909101
:10403000E509821B930B9093E5098093E4091092A4
:10404000D70B1092D60B8091D80B9091D90B892B5E
:10405000A9F42091E00B3091E10B2115310571F0AD
:104060008091E4099091E509821B930B9093E509F7
:104070008093E4091092E10B1092E00B789490E0A9
:1040800080E00895949FF001959FF00D1124E05574
:10409000F44F40815181452B31F440855185452BAA
:1040A00011F481509CCF90E0A1CF8FEF9FEF089546
:1040B0004115510549F1009739F16115710521F15B
:1040C000F8942091AC0B3091AD0B232BB9F42091D7
:1040D000AE0B3091AF0B232B89F49093AD0B8093F3
:1040E000AC0B7093AF0B6093AE0B789425E030E08F
:1040F00090E080E0FA0131832083089578942FEFD7
:104100003FEF86EF9FEFF6CF8FEF9FEF0895059774
:1041100069F4F8941092AD0B1092AC0B1092AF0BA7
:104120001092AE0B789490E080E008958FEF9FEFAF
:1041300008956115710519F4F0E0E0E011C08530D3
:10414000910581F4E091AC0BF091AD0B3097A1F3A8
:10415000CB0101961995009779F3FC0185E08193D5
:10416000CF0108959C01235031092230310520F7F9
:104170002AE0289FD001299FB00D1124A055B44FEB
:104180002D913C911197232BB9F216962D913C91CC
:1041900017972617370780F2F89412962D913C91C5
:1041A00013972115310529F0ED91FC911197309766
:1041B00011F47894C1CF4181528111965C934E9352
:1041C0002150310913963C932E9312978193789442
:1041D000C7CFEEE2FBE08EE7DF011D928A95E9F79B
:1041E000E6EEF9E088E491E0DF019C011D922150A8
:1041F0003040E1F71092E5091092E409E0EBFBE0B2
:1042000082E3DF011D928A95E9F7ECEAFBE084E0A6
:10421000DF011D928A95E9F790E080E00895CF9341
:10422000DF93C0912902D0912A02CF3FDC0759F4D5
:1042300020D490932A028093290297FF09C0D0933B
:104240002A02C093290284EF9FEFDF91CF91089556
:1042500090E080E0FACF8230910528F48093E20B61
:1042600090E080E008958FEF9FEF08954F925F9266
:104270006F927F92AF92BF92CF92DF92EF92FF92B6
:104280000F931F93CF93DF931F921F92CDB7DEB78B
:104290001A821982009709F478C06115710509F432
:1042A00074C02091290230912A0207EF1FEF2F3F9F
:1042B0003F4F09F444C06B015C01412C512C320189
:1042C000F12CE12C10E000E09E012F5F3F4FA60192
:1042D0004E195F09B5016E0D7F1D809129029091E5
:1042E0002A0226D4892B09F04AC089819A81009735
:1042F00041F4E114F10429F42091E20B222309F4A2
:1043000041C0E80EF91EEC14FD04C8F480E848161C
:1043100084E858068EE16806710418F560E070E0E4
:10432000CB0129D72AE0420E511C611C711C0A3FA7
:104330004FEF140721F0043F8FEF1807A1F4C801D5
:104340000F900F90DF91CF911F910F91FF90EF9001
:10435000DF90CF90BF90AF907F906F905F904F9025
:10436000089501EF1FEF81E090E0013F2FEF12076A
:1043700011F090E080E0892B09F4A6CFE0CF04EFA4
:104380001FEFDDCF0AEF1FEFDACF0FEF1FEFD7CF11
:104390004F925F926F927F92AF92BF92CF92DF92D5
:1043A000EF92FF920F931F93CF93DF931F921F9271
:1043B000CDB7DEB71A821982009709F478C061156B
:1043C000710509F474C02091290230912A0207EF87
:1043D0001FEF2F3F3F4F09F444C06B015C01412C9C
:1043E000512C3201F12CE12C10E000E09E012F5FF6
:1043F0003F4FA6014E195F09B5016E0D7F1D8091DB
:10440000290290912A024AD3892B09F04AC0898156
:104410009A81009741F4E114F10429F42091E20B10
:10442000222309F441C0E80EF91EEC14FD04C8F47F
:1044300080E4481682E458068FE06806710418F597
:1044400060E070E0CB0197D62AE0420E511C611C5F
:10445000711C0E3F4FEF140721F0043F8FEF180738
:10446000A1F4C8010F900F90DF91CF911F910F9190
:10447000FF90EF90DF90CF90BF90AF907F906F90C4
:104480005F904F90089502EF1FEF81E090E0023FB0
:104490002FEF120711F090E080E0892B09F4A6CFEE
:1044A000E0CF04EF1FEFDDCF0EEF1FEFDACF0FEFFE
:1044B0001FEFD7CF8091290290912A028F3F980752
:1044C00049F0CFD2892B49F48FEF9FEF90932A02C6
:1044D0008093290290E080E0089584EF9FEF089593
:1044E000CF92DF92EF92FF920F931F93CF93DF93C0
:1044F00021E04115510509F020E0415051092111F9
:104500002CC0DC01FB01D12CC12C21E022C03FEFEB
:10451000C31AD30A7D010D911D91E701EA80FB804A
:10452000E016F106A8F420813181E280F380F18267
:10453000E08233832283ED90FC9011979D012250FD
:104540003109E901F982E88211961C930E9320E06B
:104550003296C416D506D8F2D2CFDF91CF911F91F3
:104560000F91FF90EF90DF90CF900895FC01680FBE
:10457000791F90E080E0E617F70709F4089521918C
:10458000820F911DF8CF2091E30B211113C047DE5C
:10459000009791F41092E90B1092E80B1092E70B40
:1045A0001092E60B1092E50B1092E40B21E02093A1
:1045B000E30B089584EF9FEF0895AF92BF92CF92DF
:1045C000DF92EF92FF920F931F93CF93DF930097A9
:1045D00009F460C04630510508F45CC02091E30B3B
:1045E000C7EFDFEF222309F449C08C01060F171F24
:1045F000F801C080D180C114D10409F44EC09601E5
:104600002A5F3F4F4217530708F447C07C0180914F
:10461000E80B9091E90B93838283B6016C5F7F4F27
:104620005801A60EB71EC801A1DFF5019183808352
:1046300064E070E0C8011ADEEC01892BF9F481E036
:1046400090E009DEB601C801049610DEEC01892B6A
:1046500091F462E070E0C50109DEEC01892B59F4A8
:10466000C701DBDB8091E80B9091E90B01969093F9
:10467000E90B8093E80B90E080E0EDDDCE01DF9167
:10468000CF911F910F91FF90EF90DF90CF90BF904F
:10469000AF900895CFEFDFEFF1CFC9EFDFEFEECFAF
:1046A0006F927F928F929F92AF92BF92CF92DF9242
:1046B000EF92FF920F931F93CF93DF9300D01F923F
:1046C000CDB7DEB7009709F47AC04115510509F45A
:1046D00076C02091E30B07EF1FEF222309F44DC0B2
:1046E0003A017B015C0164E070E0CE01019650DE8E
:1046F0008C01892B09F041C009811A81011511052E
:1047000009F45AC0480186E0880E911CB701680D73
:10471000791D80912B0290912C020BDD6C0100978A
:1047200009F450C0A70170E060E00E949A2D8981D1
:104730009A81AB81BC81EC0CFD1CF70181939193B4
:10474000A193B1937F0181E090E085DDB801C701BD
:104750001FDE892B31F562E070E0C701800F911FE9
:1047600017DE8C01892BE9F490E080E074DDF5011F
:10477000D182C082F30191828082C8010F900F9094
:104780000F900F90DF91CF911F910F91FF90EF90BD
:10479000DF90CF90BF90AF909F908F907F906F9061
:1047A000089590E080E057DDF50111821082F30159
:1047B00011821082C60131DB09EF1FEFDECF0FEF50
:1047C0001FEFDBCF06EF1FEFD8CF0097A1F0411509
:1047D000510589F02115310571F0F90136966E17F2
:1047E0007F0748F0DC012D933C93DA01ED93FC93B5
:1047F00090E080E008958FEF9FEF0895AF92BF9211
:10480000CF92DF92EF92FF920F931F93CF93DF939C
:10481000009709F45FC04115510509F45BC065308C
:10482000710508F457C02091E30BC7EFDFEF222397
:1048300091F1DC01CD90DC9011971296ED91FC91F5
:1048400096012A5F3F4FC9EFDFEF2617370719F5AB
:10485000C091E40BD091E50B209749F521E030E0C1
:104860003093E50B2093E40B7A018C01F093E70B76
:10487000E093E60B5601B4E0AB0EB11CB50176DE59
:104880000A0D1B1DF801208131818217930729F53C
:10489000D701CD92DC92CE01DF91CF911F910F9184
:1048A000FF90EF90DF90CF90BF90AF900895209150
:1048B000E60B3091E70B2F5F3F4FCCEFDFEFE217B6
:1048C000F30790F2CBEFDFEF2E173F0768F2D0E04F
:1048D000C0E0CACFCFEFDFEFDECFC3EFDFEFDBCF3C
:1048E00084E090E0089582E090E008958CEF9FEFDF
:1048F000089580E290E008951092E90B1092E80B81
:104900001092E70B1092E60B1092E50B1092E40B5D
:1049100090E080E0089590932C0280932B020895FC
:104920008091E30B882391F0C5DD009789F4109204
:10493000E90B1092E80B1092E70B1092E60B109225
:10494000E50B1092E40B1092E30B089590E080E0E9
:104950000895009749F06115710531F0FC0111824D
:104960001082FB01118210820895F3CF26E030E01F
:1049700040E855E260E070E090E080E000C0813007
:10498000910569F01CF4892B39F008958230910566
:1049900049F0039751F0089587EF9BE0ADC584E996
:1049A0009CE0FCCF81E39DE0F9CF8EEC9DE0F6CF5B
:1049B0001F920F920FB60F9211240BB60F922F93E6
:1049C0003F934F935F936F937F938F939F93AF9397
:1049D000BF93EF93FF938FE89DEF90932501809312
:1049E0002401B9D0FF91EF91BF91AF919F918F9129
:1049F0007F916F915F914F913F912F910F900BBEDF
:104A00000F900FBE0F901F9018958FE89DEF909319
:104A1000250180932401A3E7B0E08C918E7F8C93D5
:104A2000E0E2F1E080818C7F8083E1E2F1E080814F
:104A3000877E808380818460808380818C7F808377
:104A40008C9181608C930895E3E7F0E08081908100
:104A50009E7F90838170089581E008951092EA0B03
:104A6000089568EE73E080E090E085D390E080E008
:104A7000089526E030E040E050E16EE070E090E024
:104A800080E07DDF87EF9BE06DD4892B21F087EFFD
:104A90009BE082D4F7CF90E080E00895CF92DF9240
:104AA000EF92FF920F931F93CF93DF936B017A01E5
:104AB000E9011982188287EF9BE054D4892B69F1B0
:104AC0008601CC24C39482E0D82E8091EA0B811118
:104AD00010C087EF9BE060D40297B9F7C092EA0B51
:104AE000F801D1928F0188819981019699838883F9
:104AF000ECCF888199818E159F0578F487EF9BE034
:104B00004BD48F3F9807A9F3F80181938F018881D7
:104B10009981019699838883ECCF90E080E0DF91C2
:104B2000CF911F910F91FF90EF90DF90CF9008955C
:104B30000F931F93CF93DF93EA01890187EF9BE0E7
:104B40006BD7F801D183C08390E080E0DF91CF91F3
:104B50001F910F910895CF92DF92EF92FF92809173
:104B6000EB0B91E0980F9093EB0B882369F021E019
:104B700030E03093ED0B2093EC0B8093EB0BFF9028
:104B8000EF90DF90CF9008957894E0917708F091BE
:104B90007808C28CD38CE48CF58C0E941503B70185
:104BA000A60190E080E00E948702F8948091EB0BD0
:104BB0008150E3CF0F931F93CF93DF9310928C1B01
:104BC00010928B1B0ED3D2DEC0917708D09178085B
:104BD000198218826FEF7FEFCB010E940A0370E009
:104BE00060E090E080E00E948B01009709F03AC0FD
:104BF0000E94B504F8947894BE016E5D7F4F8A815F
:104C00009B810E948E01892B59F46FEF7FEFCB01BE
:104C10000E941D020E940403882311F081E08EA3EC
:104C2000F894F3DE0E940703882311F080E008C0A7
:104C30000E9404038111FACF81E09EA19111F6CF69
:104C400080938B1B78940E94CE0C8C017894809179
:104C50008B1B81110CC00E94E2050E94E902F894AE
:104C600090E080E0DF91CF911F910F9108950E9415
:104C7000E7020E9407038823D9F081E080938C1B10
:104C800090918C1B81E0911180E080938B1B80912F
:104C90008C1B8111D9DE0130110529F40E94CE0C44
:104CA000892B09F4DBDE0E94CE0C8C01D5DECFCF40
:104CB0000E9404038111E1CF81E09EA19111DECF1A
:104CC00080E0DCCF5058BB27AA270ED044C135D195
:104CD00030F03AD120F031F49F3F11F41EF42AC194
:104CE0000EF4E095E7FB20C1E92F46D180F3BA1717
:104CF000620773078407950718F071F49EF55EC18B
:104D00000EF4E0950B2EBA2FA02D0B01B9019001E6
:104D10000C01CA01A0011124FF27591B99F0593F2A
:104D200050F4503E68F11A16F040A22F232F342F72
:104D30004427585FF3CF469537952795A795F040C0
:104D40005395C9F77EF41F16BA0B620B730B840BD5
:104D5000BAF09150A1F0FF0FBB1F661F771F881F8D
:104D6000C2F70EC0BA0F621F731F841F48F48795E5
:104D700077956795B795F7959E3F08F0B3CF9395D4
:104D8000880F08F09927EE0F979587950895A8D07A
:104D900008F481E008950CD0DEC0D6D040F0CDD02C
:104DA00030F021F45F3F19F0BFC0511108C1C2C0FB
:104DB000E3D098F39923C9F35523B1F3951B550B11
:104DC000BB27AA2762177307840738F09F5F5F4FDE
:104DD000220F331F441FAA1FA9F333D00E2E3AF01F
:104DE000E0E830D091505040E695001CCAF729D039
:104DF000FE2F27D0660F771F881FBB1F2617370788
:104E00004807AB07B0E809F0BB0B802DBF01FF27B7
:104E100093585F4F2AF09E3F510568F085C0CFC080
:104E20005F3FECF3983EDCF3869577956795B795F1
:104E3000F7959F5FC9F7880F911D9695879597F90C
:104E40000895E1E0660F771F881FBB1F6217730785
:104E50008407BA0720F0621B730B840BBA0BEE1F9A
:104E600088F7E0950895E89409C097FB3EF4909583
:104E70008095709561957F4F8F4F9F4F9923A9F033
:104E8000F92F96E9BB279395F695879577956795C2
:104E9000B795F111F8CFFAF4BB0F11F460FF1BC006
:104EA0006F5F7F4F8F4F9F4F16C0882311F096E999
:104EB00011C0772321F09EE8872F762F05C0662347
:104EC00071F096E8862F70E060E02AF09A95660F00
:104ED000771F881FDAF7880F9695879597F90895B9
:104EE000990F0008550FAA0BE0E8FEEF16161706FB
:104EF000E807F907C0F012161306E407F50798F063
:104F0000621B730B840B950B39F40A2661F0232B7B
:104F1000242B252B21F408950A2609F4A140A695F7
:104F20008FEF811D811D089597F99F6780E870E0DC
:104F300060E008959FEF80EC089500240A9416160F
:104F4000170618060906089500240A941216130677
:104F5000140605060895092E0394000C11F4882305
:104F600052F0BB0F40F4BF2B11F460FF04C06F5F21
:104F70007F4F8F4F9F4F089557FD9058440F551FF7
:104F800059F05F3F71F04795880F97FB991F61F0CB
:104F90009F3F79F087950895121613061406551F42
:104FA000F2CF4695F1DF08C0161617061806991FAE
:104FB000F1CF86957105610508940895E894BB27A3
:104FC00066277727CB0197F908958ADF08F48FEFDA
:104FD00008950BD0C0CFB1DF28F0B6DF18F09523CD
:104FE00009F0A2CFA7CF1124EACFC6DFA0F3959F87
:104FF000D1F3950F50E0551F629FF001729FBB27C0
:10500000F00DB11D639FAA27F00DB11DAA1F649F6B
:105010006627B00DA11D661F829F2227B00DA11D1E
:10502000621F739FB00DA11D621F839FA00D611DA4
:10503000221F749F3327A00D611D231F849F600DC5
:10504000211D822F762F6A2F11249F5750408AF0FE
:10505000E1F088234AF0EE0FFF1FBB1F661F771F8A
:10506000881F91505040A9F79E3F510570F05CCFCA
:10507000A6CF5F3FECF3983EDCF386957795679576
:10508000B795F795E7959F5FC1F7FE2B880F911DA8
:105090009695879597F908951F920F920FB60F92E4
:1050A00011242F933F938F939F93AF93BF9380913E
:1050B000EF0B9091F00BA091F10BB091F20B3091AE
:1050C000EE0B23E0230F2D3758F50196A11DB11DDE
:1050D0002093EE0B8093EF0B9093F00BA093F10BCA
:1050E000B093F20B8091F30B9091F40BA091F50B20
:1050F000B091F60B0196A11DB11D8093F30B909317
:10510000F40BA093F50BB093F60BBF91AF919F9169
:105110008F913F912F910F900FBE0F901F90189578
:1051200026E8230F0296A11DB11DD2CF3FB7F894F8
:105130008091F30B9091F40BA091F50BB091F60BCD
:1051400026B5A89B05C02F3F19F00196A11DB11DE2
:105150003FBFBA2FA92F982F8827BC01CD01620F1E
:10516000711D811D911D42E0660F771F881F991FD9
:105170004A95D1F708958F929F92AF92BF92CF92A6
:10518000DF92EF92FF926B017C01D0DF4B015C015B
:10519000C114D104E104F104D9F06BD4C7DF68195C
:1051A00079098A099B09683E73408105910580F35E
:1051B00021E0C21AD108E108F10888EE880E83E0E8
:1051C000981EA11CB11CC114D104E104F10431F7F3
:1051D000FF90EF90DF90CF90BF90AF909F908F9017
:1051E0000895789484B5826084BD84B5816084BD5F
:1051F00085B5826085BD85B5816085BDEEE6F0E050
:10520000808181608083E1E8F0E0108280818260AB
:105210008083808181608083E0E8F0E0808181602C
:105220008083E1EBF0E0808184608083E0EBF0E05C
:10523000808181608083E1E9F0E080818260808309
:10524000808181608083E0E9F0E0808181608083FB
:10525000E1EAF0E0808182608083808181608083E8
:10526000E0EAF0E0808181608083E1E2F1E080812A
:1052700082608083808181608083E0E2F1E08081D0
:1052800081608083EAE7F0E08081846080838081B0
:105290008260808380818160808380818068808358
:1052A0001092C1000895863308F0865320917B0048
:1052B000982F9870277F922B90937B0020912D023E
:1052C00090E4299F900111248770822B80937C00A9
:1052D00080917A00806480937A0080917A0086FDC4
:1052E000FCCF80917800909179000895CF93DF935F
:1052F00090E0FC01EC51FF4F2491865D9E4FFC0134
:1053000084918823C9F090E0880F991FFC01E6572B
:10531000FE4FA591B491FC01E059FE4FC591D49187
:1053200061110DC09FB7F8948C91209582238C93C6
:105330008881282328839FBFDF91CF910895623011
:1053400051F49FB7F8943C91822F809583238C93DE
:10535000E8812E2BEFCF8FB7F894EC912E2B2C9366
:105360008FBFEACFFC01918D228D892F90E0805C68
:105370009F4F821B91098F7399270895FC01918D8E
:10538000828D981731F0828DE80FF11D858D90E0A8
:1053900008958FEF9FEF0895FC01918D828D9817EE
:1053A00061F0A28DAE0FBF2FB11D5D968C91928DD5
:1053B0009F5F9F73928F90E008958FEF9FEF089506
:1053C000FC01538D448D252F30E0842F90E0821B0B
:1053D000930B541710F0CF96089501970895FC0190
:1053E000A48DA80FB92FB11DA35ABF4F2C91848D46
:1053F00090E001968F739927848FA689B7892C93A3
:10540000A089B1898C91837080648C93938D848DF5
:10541000981306C00288F389E02D80818F7D8083F8
:105420000895CF93DF93EC01888D8823B1F0AA898A
:10543000BB89E889F9898C9185FD03C0808186FD4F
:105440000CC00FB607FCF7CF8C9185FFF2CF80819F
:1054500085FFEDCFCE01C3DFEACFDF91CF91089575
:10546000EF92FF920F931F93CF93DF93EC0181E0B4
:10547000888F9B8D8C8D98131AC0E889F98980815B
:1054800085FF15C09FB7F894EE89FF896083E8898E
:10549000F98980818370806480839FBF81E090E080
:1054A000DF91CF911F910F91FF90EF900895F62E0D
:1054B0000B8D10E00F5F1F4F0F731127E02E8C8DA7
:1054C0008E110BC00FB607FCFACFE889F9898081ED
:1054D00085FFF5CFCE0183DFF2CFEB8DEC0FFD2FF3
:1054E000F11DE35AFF4FF0829FB7F8940B8FEA89C2
:1054F000FB8980818062D0CFCF92DF92EF92FF92C2
:105500001F93CF93DF93EC016A017B01122FE8898F
:10551000F98982E08083C11481EED806E104F104A8
:1055200099F060E079E08DE390E0A7019601B6D2B2
:1055300021503109410951095695479537952795CD
:10554000211580E1380790F0E889F989108260E838
:1055500074E88EE190E0A7019601A0D221503109B4
:10556000410951095695479537952795EC85FD8555
:105570003083EE85FF852083188EEC89FD891083AA
:10558000EA89FB89808180618083EA89FB89808147
:1055900088608083EA89FB89808180688083EA89CA
:1055A000FB8980818F7D8083DF91CF911F91FF9058
:1055B000EF90DF90CF9008951F920F920FB60F9249
:1055C00011240BB60F922F938F939F93EF93FF931A
:1055D000E091070CF091080C8081E0910D0CF091A6
:1055E0000E0C82FD1DC090818091100C8F5F8F7317
:1055F0002091110C821741F0E091100CF0E0E9507D
:10560000F44F958F8093100CFF91EF919F918F91A4
:105610002F910F900BBE0F900FBE0F901F901895FB
:105620008081F2CF1F920F920FB60F9211240BB60A
:105630000F922F933F934F935F936F937F938F932B
:105640009F93AF93BF93EF93FF9387EF9BE0C7DEEA
:10565000FF91EF91BF91AF919F918F917F916F914A
:105660005F914F913F912F910F900BBE0F900FBE06
:105670000F901F901895E7EFFBE01382128288EEDF
:1056800093E0A0E0B0E084839583A683B7838BEF9B
:1056900098E09183808385EC90E09587848784EC03
:1056A00090E09787868780EC90E0918B808B81ECEF
:1056B00090E0938B828B82EC90E0958B848B86ECD0
:1056C00090E0978B868B118E128E138E148E089518
:1056D0001F920F920FB60F9211240BB60F922F93B9
:1056E0008F939F93EF93FF93E091A40CF091A50CFF
:1056F0008081E091AA0CF091AB0C82FD1DC09081DD
:105700008091AD0C8F5F8F732091AE0C821741F0AA
:10571000E091AD0CF0E0EC56F34F958F8093AD0C1B
:10572000FF91EF919F918F912F910F900BBE0F9052
:105730000FBE0F901F9018958081F2CF1F920F928D
:105740000FB60F9211240BB60F922F933F934F93E6
:105750005F936F937F938F939F93AF93BF93EF93D9
:10576000FF9384E99CE03BDEFF91EF91BF91AF9105
:105770009F918F917F916F915F914F913F912F9169
:105780000F900BBE0F900FBE0F901F901895E4E97D
:10579000FCE01382128288EE93E0A0E0B0E0848304
:1057A0009583A683B7838BEF98E0918380838DECFC
:1057B00090E0958784878CEC90E09787868788ECCB
:1057C00090E0918B808B89EC90E0938B828B8AECBC
:1057D00090E0958B848B8EEC90E0978B868B118E6E
:1057E000128E138E148E08951F920F920FB60F9281
:1057F00011240BB60F922F938F939F93EF93FF93E8
:10580000E091410DF091420D8081E091470DF091C2
:10581000480D82FD1DC0908180914A0D8F5F8F736E
:1058200020914B0D821741F0E0914A0DF0E0EF5CC2
:10583000F24F958F80934A0DFF91EF919F918F9139
:105840002F910F900BBE0F900FBE0F901F901895C9
:105850008081F2CF1F920F920FB60F9211240BB6D8
:105860000F922F933F934F935F936F937F938F93F9
:105870009F93AF93BF93EF93FF9381E39DE0AFDDE1
:10588000FF91EF91BF91AF919F918F917F916F9118
:105890005F914F913F912F910F900BBE0F900FBED4
:1058A0000F901F901895E1E3FDE01382128288EEBD
:1058B00093E0A0E0B0E084839583A683B7838BEF69
:1058C00098E09183808385ED90E09587848784EDCF
:1058D00090E09787868780ED90E0918B808B81EDBB
:1058E00090E0938B828B82ED90E0958B848B86ED9C
:1058F00090E0978B868B118E128E138E148E0895E6
:105900001F920F920FB60F9211240BB60F922F9386
:105910008F939F93EF93FF93E091DE0DF091DF0D56
:105920008081E091E40DF091E50D82FD1DC0908134
:105930008091E70D8F5F8F732091E80D821741F002
:10594000E091E70DF0E0E253F24F958F8093E70D81
:10595000FF91EF919F918F912F910F900BBE0F9020
:105960000FBE0F901F9018958081F2CF1F920F925B
:105970000FB60F9211240BB60F922F933F934F93B4
:105980005F936F937F938F939F93AF93BF93EF93A7
:10599000FF938EEC9DE023DDFF91EF91BF91AF91DE
:1059A0009F918F917F916F915F914F913F912F9137
:1059B0000F900BBE0F900FBE0F901F901895EEEC3E
:1059C000FDE01382128288EE93E0A0E0B0E08483D1
:1059D0009583A683B7838BEF98E09183808385E3DB
:1059E00091E09587848784E391E09787868780E3B9
:1059F00091E0918B808B81E391E0938B828B82E3AA
:105A000091E0958B848B86E391E0978B868B118E4A
:105A1000128E138E148E0895AF92BF92CF92DF92A2
:105A2000EF92FF920F931F93CF93DF936C017B0153
:105A30008B01040F151FEB015E01AE18BF08C017E4
:105A4000D10759F06991D601ED91FC910190F08157
:105A5000E02DC6011995892B79F7C501DF91CF910A
:105A60001F910F91FF90EF90DF90CF90BF90AF907C
:105A700008950895AA1BBB1B51E107C0AA1FBB1FB5
:105A8000A617B70710F0A61BB70B881F991F5A95CA
:105A9000A9F780959095BC01CD010895A1E21A2E39
:105AA000AA1BBB1BFD010DC0AA1FBB1FEE1FFF1FC2
:105AB000A217B307E407F50720F0A21BB30BE40B12
:105AC000F50B661F771F881F991F1A9469F7609559
:105AD0007095809590959B01AC01BD01CF01089513
